:020000040800F2
:100000000050002021020008270200082B020008EF
:100010009D020008A1020008E9020008000000009B
:100020000000000000000000000000003103000894
:10003000350300080000000039030008250F000800
:100040004D0300084D0300084D0300084D03000850
:100050004D0300084D03000891080008AD08000892
:100060004D0300084D0300084D0300084D03000830
:100070004D0300084D0300084D0300084D03000820
:100080004D0300084D0300084D0300084D03000810
:100090004D0300084D0300084D0300084D03000800
:1000A0004D030008751100084D0300084D030008BA
:1000B0004D0300084D0300084D0300084D030008E0
:1000C0004D0300084D0300084D0300084D030008D0
:1000D0004D0300084D0300084D0300084D030008C0
:1000E0004D0300084D0300084D0300080000000008
:1000F0000000000000000000000000000000000000
:1001000000000000000000005FF808F100B583B0B7
:1001100000F0AAF9304B314A1360314A1360314B79
:10012000314A32498B4204D21168196004330432D7
:10013000F7E72A4B1A682E4B9A4200D0FEE7284B6D
:100140001A682C4B9A42F9D1234B2B4A13602B4A45
:1001500013602B4B02E000221A600433294A9342B9
:10016000F9D3254B1B6813B9244B1B6803B1FEE779
:1001700000F086F9694601A800F022F9224C234BD1
:10018000E41AA4100025AC4214DC214C214BE41AE3
:10019000A4100025AC4213DC0099019801F010F87E
:1001A00005461D4C1D4BE41AA410002C0EDC2846FD
:1001B00000F0E2F8154B53F8253098470135E2E797
:1001C000144B53F8253098470135E3E7013C134BB6
:1001D00053F824309847E8E7BABADECA0000002096
:1001E0002801002000000020EC1B00082C0100204A
:1001F00078563412325476982C0100209403002053
:100200002C010020980300207803000878030008E0
:1002100078030008780300087803000878030008D2
:1002200008B5FFF773FF00BEFEE71EF0040F0CBF1A
:10023000EFF30880EFF309807146414A10472DE93A
:10024000F04182B004468846124B5E6B9F6B9D6AFC
:100250001B6B13F0020F03D00E4BDB6A002B0CDB81
:100260000D4800F0B5F8CDF800803B4632462946EF
:10027000204600F009F900BEFEE74BF6AB6100F046
:100280007DF90028ECD0034B4FF00042DA6202B057
:10029000BDE8F08100ED00E08C1B000800BEFEE729
:1002A0001EF0040F0CBFEFF30880EFF309807146D6
:1002B000244A10472DE9F04182B004468846084B95
:1002C0005E6B9F6B9D6A074800F082F8CDF8008056
:1002D0003B4632462946204600F0D6F800BEFEE7EF
:1002E00000ED00E09C1B00081EF0040F0CBFEFF3B4
:1002F0000880EFF309807146134A10472DE9F04159
:1003000082B004468846084B5E6B9F6B9D6A074827
:1003100000F05EF8CDF800803B4632462946204684
:1003200000F0B2F800BEFEE700ED00E0A81B0008F8
:1003300000BEFEE700BEFEE700BEFEE7704700001D
:100340003F020008B5020008FD02000800BEFEE7FB
:10035000EC1B0008000000202C010020EC1B000812
:1003600000000000000000002C0100209803002085
:08037000000000000000000085
:10037800FEE7000008B503460C4A12685AB10B4A5A
:100388001068033323F003030344094A934206D851
:10039800064A136008BD054A06491160EFE700F0F8
:1003A8002BFF0C2303604FF0FF30F3E730010020F0
:1003B800004C00209803002001230360014B0B60D0
:1003C800704700BF040000200FB400B583B004AB31
:1003D80053F8042B01938021064800F047FF0028BA
:1003E80003DD0146034800F037F803B05DF804EB7D
:1003F80004B07047380100202DE9F04385B0044669
:100408000F4643560BB10E461EE0042528462146EA
:10041800ABBE0446384605B0BDE8F08314F9011BAD
:1004280004AA1A4402F8101C0133AB42F6D304AAFA
:100438001344002203F8102C4FF00408E946404604
:100448004946ABBE8046761B002EE3D03546102EBB
:1004580028BF10250023E8E708B5FFF7CDFF08BD42
:1004680008B500F0FDF8024A024B9A6008BD00BFCB
:100478000000000800ED00E008B500F019F908BD1B
:10048800F8B504460D4617461E462748FFF79CFF59
:1004980021682648FFF798FF61682548FFF794FF11
:1004A800A1682448FFF790FFE1682348FFF78CFF15
:1004B80021692248FFF788FF61692148FFF784FF17
:1004C800A1692048FFF780FFE1691F48FFF77CFF1B
:1004D8001E48FFF779FF29461D48FFF775FF1D4C99
:1004E800E16A1D48FFF770FF216B1C48FFF76CFF9E
:1004F800E16B1B48FFF768FF15F0800F0AD115F470
:10050800004F0CD11748FFF75FFF06991648FFF711
:100518005BFFF8BD39461548FFF756FFEFE7314650
:100528001348FFF751FFEDE7701A0008801A00081A
:10053800901A0008A01A0008B01A0008C01A00088B
:10054800D01A0008E01A0008F01A0008001B00087A
:100558000C1B000800ED00E01C1B00082C1B000809
:100568003C1B00086C1B0008741B00084C1B00088F
:100578005C1B000883691A888A4201D000207047F2
:100588000268033A012A03D80233836101207047C5
:100598000020704782B00023019300932C4A13680F
:1005A80043F4803313602A4B1B6803F40033009331
:1005B800019B01330193009B1BB9019BB3F5A06F0D
:1005C800F1D1234B1B6813F4003F06D0012300939D
:1005D800009B012B04D002B0704700230093F7E77B
:1005E8001C4B1A6842F010021A601A6822F00302C3
:1005F8001A601A6842F002021A60A3F580535A681A
:100608005A605A685A605A6842F480625A605A6856
:1006180022F47C125A605A6842F4E8125A601A6846
:1006280042F080721A600A4B1B6813F0007FFAD000
:10063800074B5A6822F003025A605A6842F00202D5
:100648005A60034B5B6803F00C03082BF9D1C2E72F
:10065800001002400020024008B5FFF79BFF08BDCC
:1006680008B5104B1A6842F001021A6059680E4A20
:100678000A405A601A6822F0847222F480321A60A2
:100688001A6822F480221A605A6822F4FE025A601C
:100698004FF41F029A60FFF7DFFF044B4FF0006230
:1006A8009A6008BD001002400000FFF800ED00E06D
:1006B8001F4B5B6803F00C03042B15D0082B17D0D5
:1006C8001BB11C4B1C4A1A6002E01A4B1A4A1A60EA
:1006D800174B5B68C3F30313184AD35CDAB21549A6
:1006E8000B68D3400B607047124B134A1A60EFE750
:1006F8000F4A53685268C3F38343023312F4803FAE
:100708000AD00B4A526812F4003F0BD00C4A02FB85
:1007180003F3084A1360DBE7094A02FB03F3054ABF
:100728001360D5E7044A02FB03F3024A1360CFE7DC
:10073800001002401C00002000127A000C0000206B
:1007480000093D0030B48308094A023352F82340B7
:1007580080000F25854024EA050442F8234052F81A
:1007680023408140214342F8231030BC704700BF2A
:100778000000014000B585B0192000F05FFA102292
:100788000021684600F03EFD01238DF80B30082358
:10079800019300238DF80C306946034800F09DFC56
:1007A80005B05DF804FB00BF002C014030B583B0F4
:1007B80001258DF8005000248DF804408DF805407F
:1007C8008DF80340684600F011FB2A4602210846CE
:1007D80000F022FB2A462146022000F01DFB03B050
:1007E80030BD000008B504220021094800F091F846
:1007F8000849002000F042F800210846FFF7A2FF50
:10080800062000F01BFA0021084600F00FF808BD8A
:1008180000080140690A000808B5012000F0F8F94D
:1008280008BD08B5002000F0F3F908BD012911D072
:1008380049B1022915D010490B68012202FA00F0CB
:100848001843086070470C49CB6801228240134363
:10085800CB60F0E708498B680122824013438B6024
:10086800E9E7054AD168012383401943D1609168BB
:100878000B439360DFE700BF00040140014B43F8DE
:1008880020107047B801002008B5044B1B68984732
:10089800034A536943F00103536108BDB8010020BE
:1008A8000004014008B5044B5B689847034A536944
:1008B80043F00203536108BDB80100200004014061
:1008C8000F291FD810B407290FD90839C9B24368AE
:1008D80089000F248C4023EA04034360436802FA2A
:1008E80001F11943416010BC7047036889000F2467
:1008F8008C4023EA04030360036802FA01F11943F8
:100908000160F0E7704708B50A790978FFF7D8FF62
:1009180008BD0F2900D9704700B585B00B46029273
:1009280004A921F80C3DFFF7EEFF05B05DF804FBC4
:100938000F2905D8012A04D0012303FA01F14161E6
:100948007047012303FA01F10161704738B5054684
:100958000024204601E00134E4B2142C10D8094BDD
:100968001B78DBB2A3420BD3074B13F83430AB42EE
:10097800F1D1054B03EBC4035B6898470120EAE714
:1009880038BD00BFCC020020EC020020264B1B68BB
:10099800A3F51C53103BB3F57A6F08D800B583B0A4
:1009A800224B01221A7000238DF807300EE01F4BEE
:1009B80000221A707047012202FA03F19DF80720FD
:1009C80022EA01028DF807200133DBB2072B13D886
:1009D80003F11102144951F82220A2F5FA62B2F586
:1009E800967FE8D8012202FA03F19DF807200A430E
:1009F800D2B28DF80720E7E79DF80700FFF7A6FFBA
:100A080001280CD0094B00221A700023084A1370E1
:100A1800084A1370044A136003B05DF804FB034BE3
:100A280001221A70F1E700BF04020020CE02002064
:100A3800CF020020CD02002010B4074A1478074BDB
:100A480003F83400107803EBC003596013780133BE
:100A5800DBB2137010BC7047CC020020EC020020FF
:100A680038B5144B1B787BB9134A4FF47A71782048
:100A780000F02AFA0F4B01221A70104B1B7813F062
:100A8800010F15D0012038BD0D4C2578EDB201209D
:100A980000F03AFA0B4B43F82500074A4FF47A71F5
:100AA800782000F011FA23780133DBB22370E4E7F1
:100AB8000020E8E7CF02002095090008CE020020B8
:100AC800CD0200200402002070B5064600252C4601
:100AD80003E00134E4B20135EDB2072C0FD846FA31
:100AE80005F2074B03EBC40102F00102097953F840
:100AF8003400FFF71DFF072DEBD10025E9E770BD96
:100B08006000002008B5054B03EBC00100220979FD
:100B180053F83000FFF70CFF08BD00BF200000208D
:100B280010B500240AE0074B03EBC4010122097940
:100B380053F83400FFF7FCFE0134E4B2072CF2D975
:100B480010BD00BF2000002070B500240AE0124B41
:100B580003EBC4010122097953F83400FFF7D9FEE9
:100B68000134E4B2072CF2D9FFF7DAFF002410E0D1
:100B78000A4D05EBC4060122317955F83400FFF718
:100B8800C8FEFE22317955F83400FFF7D1FE013452
:100B9800E4B2072CECD970BD2000002060000020D2
:100BA80038B5054600240FE0FFF7BAFF285DFFF7C8
:100BB8008BFF2046FFF7A6FF012240F6C411044828
:100BC80000F0B6FA0134E4B2072CEDD938BD00BF05
:100BD800002C0140F8B506460F4600250BE001350C
:100BE800EDB20EE07019FFF7DBFF0134E4B2064BFB
:100BF8001B78A342F6D8BD4205D2044B1B78012BC3
:100C0800EDD00024F3E7F8BDA1000020A0000020EB
:100C180010B1012808D07047074B1B78052B0AD95B
:100C2800053B054A13707047034B1B78312B02D8DC
:100C38000533014A13707047A100002010B41F2823
:100C48000ADD3B2812DC0A4C6168012202FA00F333
:100C58000B436360104607E0054C2168012202FA45
:100C680000F30B432360104610BC70470020FBE7DD
:100C780000E100E0304B5A6822F001025A605A68DD
:100C880022F002025A6001282AD0A8B102283FD0D7
:100C9800294A136843F001031360274B1B6813F0BC
:100CA800020FFAD0244B5A6822F001025A605A689F
:100CB80022F002025A6070471F4A136843F001038A
:100CC80013601D4B1B6813F0020FFAD01A4B5A68B9
:100CD80022F001025A605A6822F002025A607047F4
:100CE800154B1A6842F480321A601A6822F480227E
:100CF8001A60114B1B6813F4003FFAD00E4B5A6868
:100D080042F001025A605A6822F002025A607047A3
:100D1800094A136843F080731360074B1B6813F08C
:100D2800007FFAD0044B5A6822F001025A605A68D0
:100D380042F002025A607047001002401B4B5A688A
:100D480022F400325A605A6822F480325A6001282C
:100D580017D038B1022823D0144A536823F48033BB
:100D680053607047114B5A6822F400325A605A682F
:100D780042F480325A600D4B1B6813F4003FFAD0DE
:100D880070470A4B5A6842F400325A605A6842F473
:100D980080325A60054B1B6813F4003FFAD0704745
:100DA800024A536823F480335360704700100240AE
:100DB800024A536843EA804050607047001002407E
:100DC800024678B1084B5968C07841EA0011596069
:100DD8005968107941EA002159605968127941EA45
:100DE800C2225A60704700BF0010024090B110B58F
:100DF80004460078FFF73EFF2378022B03D02046F5
:100E0800FFF7DEFF10BD6078FFF798FFA078FFF7C7
:100E1800CFFFF4E7704700001F2933D8012815D009
:100E280010B1022824D07047012A08D01948436914
:100E3800012202FA01F123EA0101416170471548D4
:100E4800436902FA01F1194341617047012A08D048
:100E58001048C369012202FA01F123EA0101C161C4
:100E680070470C48C36902FA01F11943C161704720
:100E7800012A08D007488369012202FA01F123EA0E
:100E88000101816170470348836902FA01F119433E
:100E9800816170470010024038B101280BD0094A1F
:100EA800136823F0020313607047064A136823F09F
:100EB80004031360F3E7034A136843F00403136061
:100EC800EDE700BF10E000E010B40C4B1C6824F004
:100ED80001041C6000245C609C6001FB00F1596007
:100EE80007490A60074A14701A6842F002021A6039
:100EF8001A6842F001021A6010BC704710E000E066
:100F0800D4020020D0020020034A536892689B1A3A
:100F180000FB03F0704700BF10E000E008B50B4B82
:100F28001B7813F0010F0BD1094B1A6822F002024B
:100F38001A601A6822F001021A6000225A609A6048
:100F4800044B1B689847024B1B6808BDD002002061
:100F580010E000E0D402002089B28185704789B290
:100F68000185704711B1012907D0704703889BB2EA
:100F780023F001039BB203807047038843F0010309
:100F88000380704711B1012907D0704703889BB2CD
:100F980023F002039BB203807047038843F00203E7
:100FA8000380704711B1012907D0704703889BB2AD
:100FB80023F080039BB203807047038843F08003CB
:100FC8000380704703292ED8DFE801F0020F1A25A5
:100FD80003889BB223F020039BB2038003889BB253
:100FE80023F040039BB203807047038843F020033B
:100FF800038003889BB223F040039BB203807047B1
:1010080003889BB223F020039BB20380038843F03C
:10101800400303807047038843F02003038003885C
:1010280043F040030380704711B1012907D070478E
:1010380003889BB223F010039BB203807047038898
:1010480043F0100303807047012910D011B1022921
:1010580018D0704703889BB223F480739BB2038037
:1010680003889BB223F400739BB203807047038804
:1010780043F48073038003889BB223F400739BB20C
:101088000380704703889BB223F480739BB203806C
:10109800038843F400730380704711B1012907D016
:1010A800704703889BB223F008039BB20380704704
:1010B800038843F008030380704711B1012907D062
:1010C800704783899BB223F001039BB283817047E9
:1010D800838943F001038381704738B505460C4680
:1010E8000968FFF739FF61682846FFF738FF217A5A
:1010F8002846FFF747FF617A2846FFF753FFA17A92
:101108002846FFF75FFF217B2846FFF78DFF617BAD
:101118002846FFF799FFA17B2846FFF7BEFFE17B32
:101128002846FFF7CAFFE17A2846FFF71BFF38BDBC
:1011380001FB02F292B28285038843F00103038027
:10114800038A13F0010FFBD003889BB223F001033D
:101158009BB2038000238385034A138A9BB223F042
:1011680001039BB213827047002C014008B50F4B56
:101178001B7813F0010F0ED10D4A93899BB223F00F
:1011880001039BB2938113889BB223F001039BB2A6
:10119800138000239385074B1B689847044A138ADA
:1011A8009BB223F001039BB2138208BDD802002032
:1011B800002C0140DC02002008B5FFF7F7FAFFF722
:1011C800D9FA0A494320FFF737FC09494020FFF7BD
:1011D80033FCFFF707FBFFF7B7FC0020FFF75CFEC7
:1011E8001E210448FFF7F6FCFAE700BF21080008B3
:1011F8002B080008A4000020014B1868704700BFA6
:10120800C400002003460244934200D1704703F80B
:10121800011BF9E730B5141E05469BB0184605DAE0
:101228008B234FF0FF302B601BB030BD4FF402739F
:10123800ADF80C300CBF234604F1FF33029305933D
:101248004FF6FF7300910491ADF80E3002461E9BD5
:101258006946284600F072F8431CBCBF8B232B60FC
:10126800002CE1D00022009B1A70DDE707B500933F
:1012780013460A46014603480068FFF7CBFF03B050
:101288005DF804FBC40000202DE9F0478E68824613
:101298009E420C469046994637D88A8912F4906F38
:1012A80031D00223256809696F1A656905EB450580
:1012B80095FBF3F509F101033B449D4238BF1D46F8
:1012C800530530D5294600F035FB064650B90C23A6
:1012D8004FF0FF30CAF80030A38943F04003A381E0
:1012E800BDE8F0873A46216900F0B4FAA38923F4EF
:1012F800906343F08003A38126613E4426604E46F6
:101308006561ED1BA5604E4500D94E463246414603
:10131800206800F0AAFAA36800209B1BA36023683A
:101328001E442660DCE72A4600F05EFB06460028DD
:10133800E2D12169504600F0B1FAC8E72DE9F04F33
:101348009DB003938B8980461D060C4616460FD523
:101358000B696BB9402100F0EDFA2060206128B9D3
:101368000C23C8F800304FF0FF30C7E0402363611A
:101378000023099320238DF8293030234FF0010BE7
:101388008DF82A3037463D4615F8013B0BB1252B21
:101398003ED1B7EB060A0BD05346324621464046AB
:1013A800FFF772FF013000F0A480099B53440993B2
:1013B8003B78002B00F09D8000234FF0FF32CDE9F1
:1013C8000523049307938DF853301A932F4605226B
:1013D80017F8011B4F4800F02FFA049BD0B9D90623
:1013E80044BF20228DF853201A0744BF2B228DF8C2
:1013F80053202A782A2A15D02F4600200A25079A32
:10140800394611F8013B303B092B4DD9B8B10FE0F3
:101418002F46B8E73F4A3D46801A0BFA00F01843BA
:101428000490D3E7039A111D12680391002A01DB87
:10143800079204E0524243F00203079204933B7878
:101448002E2B0CD17B782A2B33D1039B02371A1D04
:101458001B680392002BB8BF4FF0FF3305932E4D46
:1014680003223978284600F0E7F938B14023401BB9
:1014780003FA00F0049B01370343049339780622EA
:1014880026487E1C8DF8281000F0D6F9002838D0A0
:10149800234B13BB039B073323F007030833039342
:1014A800099B4B4409936DE705FB023201200F4667
:1014B800A6E700230A25194601370593384610F890
:1014C800012B303A092A03D9002BC8D00591C6E769
:1014D80005FB012101230746F0E703AB00932246F1
:1014E800104B04A94046AFF30080B0F1FF3F81469E
:1014F800D6D1A3895B063FF536AF09981DB0BDE884
:10150800F08F03AB00932246064B04A9404600F037
:1015180081F8EAE7B81B0008BE1B0008C21B0008D8
:1015280000000000911200082DE9F04791461F467F
:101538008A680B6906469342B8BF1346C9F800305B
:1015480091F843200C46DDF8208012B10133C9F828
:1015580000302368990642BFD9F800300233C9F831
:101568000030256815F0060507D104F1190AE3686B
:10157800D9F800209B1AAB4229DC94F84330226842
:10158800003318BF012392062ED404F143023946D2
:101598003046C047013021D02368E56803F00603D0
:1015A800042B18BF0025D9F800204FF0000908BF08
:1015B800AD1AA368226908BF25EAE5759342C4BF3E
:1015C8009B1AED181A344D451AD1002008E0012362
:1015D800524639463046C047013003D14FF0FF30FC
:1015E800BDE8F0870135C2E73020E11881F84300F3
:1015F8005A1C94F845102244023382F84310C4E779
:101608000123224639463046C0470130E6D009F169
:101618000109D8E72DE9F04301F1430C0C46097E96
:1016280085B06E291746064698460C9A00F0B38096
:1016380022D8632936D00AD8002900F0B980582961
:1016480000F0838004F1420584F8421032E06429F6
:1016580001D06929F6D120681368050603F1040151
:101668002AD51B681160002B03DA2D225B4284F80F
:1016780043206F480A2239E0732900F09D8008D87A
:101688006F2920D07029DDD1236843F0200323601F
:1016980003E0752917D07829D4D17823654884F8D0
:1016A800453055E0136804F14205191D1B681160A7
:1016B80084F8423001238CE01B6810F0400F116061
:1016C80018BF1BB2CFE713682568181D10602806DD
:1016D80001D51B6802E06806FBD51B886F2914BF7B
:1016E8000A2208225248002184F843106568002D18
:1016F800A560C0F29580216821F004012160002BCB
:101708003DD1002D40F08E806546082A0BD1236814
:10171800DB0708D5236962689A42DEBF302305F8E3
:10172800013C05F1FF35ACEB05032361CDF80080E2
:101738003B4603AA21463046FFF7F6FE01304DD15D
:101748004FF0FF3005B0BDE8F083394884F8451004
:10175800136821681D1D1B6815600A060BD5CA078A
:1017680044BF41F0200121601BB9226822F0200209
:1017780022601022B7E74D0648BF9BB2EFE76546E7
:10178800B3FBF2F102FB1133C35C05F8013D0B46D4
:101798000029F5D1B9E713682568181D616910603B
:1017A80028061B6801D5196002E06A06FBD5198076
:1017B800002365462361B9E71368191D11601D6888
:1017C80062680021284600F037F808B1401B6060C5
:1017D80063682361002384F84330A7E723692A4616
:1017E80039463046C0470130AAD023689B0713D436
:1017F800E068039B9842B8BF1846A3E701234A460E
:1018080039463046C04701309AD00135E368039A1B
:101818009B1AAB42F2DCEBE7002504F11909F5E766
:10182800002BACD1037804F1420584F842306CE710
:10183800C91B0008DA1B000810B5C9B2024490425F
:10184800034601D1002303E01C7801308C42F6D115
:10185800184610BD10B5431E0A44914200D110BD70
:1018680011F8014B03F8014FF7E7884210B501EB77
:10187800020307D8421E99420AD011F8014B02F818
:10188800014FF8E78342F5D98118D21AD34200D123
:1018980010BD13F8014D01F8014DF7E738B50546BD
:1018A800002943D051F8043C0C1F002BB8BFE418A2
:1018B80000F0D0F81E4A1368104633B9636014600C
:1018C8002846BDE8384000F0C6B8A3420BD92168C5
:1018D8006218934201BF1A685B68521822606360FD
:1018E8000460EDE713465A680AB1A242FAD91968AA
:1018F8005818A0420BD12068014458188242196038
:10190800DED110685268014419605A60D8E702D9DC
:101918000C232B60D4E7206821188A4201BF116884
:1019280052680918216062605C60C9E738BD00BF71
:10193800E002002070B5CD1C25F0030508350C2DFC
:1019480038BF0C25002D064601DBA94203D90C231C
:101958003360002070BD00F07DF8214A14682146EC
:1019680091B9204C23681BB9304600F063F8206019
:101978002946304600F05EF8431C24D10C2330463B
:10198800336000F068F8E4E70B685B1B18D40B2B96
:101998000FD90B60CC18CD50304600F05CF804F13C
:1019A8000B00231D20F00700C31AD3D05A42E2507F
:1019B800D0E74B688C4216BF636013600C46EBE7B8
:1019C8000C464968CCE7C41C24F00304A04205D0A7
:1019D800211A304600F02EF80130CFD02560DBE721
:1019E800E0020020E4020020F8B5074614460E463F
:1019F80021B9BDE8F8401146FFF79CBF22B9FFF7AF
:101A08004DFF25462846F8BD00F026F8A0420FD223
:101A180021463846FFF78EFF05460028F2D03146AA
:101A28002246FFF717FF31463846FFF737FFE9E749
:101A38003546E7E738B50023054C054608462360D8
:101A4800FEF798FC431C02D1236803B12B6038BD14
:101A5800E80200207047704751F8043C181F002B1B
:101A6800BCBF0B58C0187047537461636B20667213
:101A7800616D653A0A000000205230203D20202583
:101A88003038580A00000000205231203D2020251F
:101A98003038580A00000000205232203D2020250E
:101AA8003038580A00000000205233203D202025FD
:101AB8003038580A0000000020523132203D2025DD
:101AC8003038580A00000000204C52203D202025C4
:101AD8003038580A00000000205043203D202025BF
:101AE8003038580A0000000020505352203D20256D
:101AF8003038580A000000004653522F4641523AE7
:101B08000A0000002043465352203D20202530384B
:101B1800580A00002048465352203D2020253038DE
:101B2800580A00002044465352203D2020253038D2
:101B3800580A00002041465352203D2020253038C5
:101B4800580A0000204D4D464152203D202530388E
:101B5800580A00002042464152203D2020253038B6
:101B6800580A00004D6973630A000000204C522F88
:101B78004558435F52455455524E3D2025303858FC
:101B88000A0000005B486172644661756C745D0A06
:101B9800000000005B4275734661756C745D0A0055
:101BA8005B55736167654661756C745D0A0000007A
:101BB800232D302B2000686C4C006566674546472E
:101BC80000303132333435363738394142434445B1
:101BD8004600303132333435363738396162636420
:031BE8006566002F
:101BEC007856341234010020000000000000000080
:101BFC0000000000010203040607080900A24A04C1
:101C0C00000C014000000000000C0140010000002D
:101C1C00000C014005000000000C01400600000013
:101C2C00000C014007000000000C014008000000FF
:101C3C00000C014009000000000C01400A000000EB
:101C4C0000080140010000000008014002000000F3
:101C5C0000080140030000000008014004000000DF
:101C6C0000080140050000000008014006000000CB
:101C7C0000080140070000000008014008000000B7
:101C8C000114FFFF7F4949004F4979007F404040D4
:101C9C00007F11117F007F017F017F000000000099
:101CAC000000FFFFC8000020000000000000000042
:101CBC000000000000000000000000000000000018
:101CCC000000000000000000000000000000000008
:101CDC0000000000000000000000000000000000F8
:101CEC0000000000000000000000000000000000E8
:101CFC0000000000000000000000000000000000D8
:0C1D0C0000000000000000003254769837
:040000050800010DE1
:00000001FF
