:020000040800F2
:100000000050002021020008270200082B020008EF
:100010009D020008A1020008E9020008000000009B
:100020000000000000000000000000003103000894
:10003000350300080000000039030008F50C000833
:100040004D0300084D0300084D0300084D03000850
:100050004D0300084D0300084D0300084D03000840
:100060004D0300084D0300084D0300084D03000830
:100070004D0300084D0300084D0300084D03000820
:100080004D0300084D0300084D0300084D03000810
:100090004D0300084D0300084D0300084D03000800
:1000A0004D030008450F00084D0300084D030008EC
:1000B0004D0300084D0300084D0300084D030008E0
:1000C0004D0300084D0300084D0300084D030008D0
:1000D0004D0300084D0300084D0300084D030008C0
:1000E0004D0300084D0300084D0300080000000008
:1000F0000000000000000000000000000000000000
:1001000000000000000000005FF808F100B583B0B7
:1001100000F0AAF9304B314A1360314A1360314B79
:10012000314A32498B4204D21168196004330432D7
:10013000F7E72A4B1A682E4B9A4200D0FEE7284B6D
:100140001A682C4B9A42F9D1234B2B4A13602B4A45
:1001500013602B4B02E000221A600433294A9342B9
:10016000F9D3254B1B6813B9244B1B6803B1FEE779
:1001700000F086F9694601A800F022F9224C234BD1
:10018000E41AA4100025AC4214DC214C214BE41AE3
:10019000A4100025AC4213DC0099019800F03EFF4A
:1001A00005461D4C1D4BE41AA410002C0EDC2846FD
:1001B00000F0E2F8154B53F8253098470135E2E797
:1001C000144B53F8253098470135E3E7013C134BB6
:1001D00053F824309847E8E7BABADECA0000002096
:1001E0002801002000000020F49900082C010020C4
:1001F00078563412325476982C010020D401002015
:100200002C010020D80100207803000878030008A2
:1002100078030008780300087803000878030008D2
:1002200008B5FFF773FF00BEFEE71EF0040F0CBF1A
:10023000EFF30880EFF309807146414A10472DE93A
:10024000F04182B004468846124B5E6B9F6B9D6AFC
:100250001B6B13F0020F03D00E4BDB6A002B0CDB81
:100260000D4800F0B5F8CDF800803B4632462946EF
:10027000204600F009F900BEFEE74BF6AB6100F046
:100280007DF90028ECD0034B4FF00042DA6202B057
:10029000BDE8F08100ED00E0DC19000800BEFEE7DB
:1002A0001EF0040F0CBFEFF30880EFF309807146D6
:1002B000244A10472DE9F04182B004468846084B95
:1002C0005E6B9F6B9D6A074800F082F8CDF8008056
:1002D0003B4632462946204600F0D6F800BEFEE7EF
:1002E00000ED00E0EC1900081EF0040F0CBFEFF366
:1002F0000880EFF309807146134A10472DE9F04159
:1003000082B004468846084B5E6B9F6B9D6A074827
:1003100000F05EF8CDF800803B4632462946204684
:1003200000F0B2F800BEFEE700ED00E0F8190008AA
:1003300000BEFEE700BEFEE700BEFEE7704700001D
:100340003F020008B5020008FD02000800BEFEE7FB
:10035000F4990008000000202C010020F499000806
:1003600000000000000000002C010020D801002047
:08037000000000000000000085
:10037800FEE7000008B503460C4A12685AB10B4A5A
:100388001068033323F003030344094A934206D851
:10039800064A136008BD054A06491160EFE700F0F8
:1003A80053FE0C2303604FF0FF30F3E730010020C9
:1003B800004C0020D801002001230360014B0B6092
:1003C800704700BF040000200FB400B583B004AB31
:1003D80053F8042B01938021064800F06FFE002893
:1003E80003DD0146034800F037F803B05DF804EB7D
:1003F80004B07047380100202DE9F04385B0044669
:100408000F4643560BB10E461EE0042528462146EA
:10041800ABBE0446384605B0BDE8F08314F9011BAD
:1004280004AA1A4402F8101C0133AB42F6D304AAFA
:100438001344002203F8102C4FF00408E946404604
:100448004946ABBE8046761B002EE3D03546102EBB
:1004580028BF10250023E8E708B5FFF7CDFF08BD42
:1004680008B500F0FDF8024A024B9A6008BD00BFCB
:100478000000000800ED00E008B500F019F908BD1B
:10048800F8B504460D4617461E462748FFF79CFF59
:1004980021682648FFF798FF61682548FFF794FF11
:1004A800A1682448FFF790FFE1682348FFF78CFF15
:1004B80021692248FFF788FF61692148FFF784FF17
:1004C800A1692048FFF780FFE1691F48FFF77CFF1B
:1004D8001E48FFF779FF29461D48FFF775FF1D4C99
:1004E800E16A1D48FFF770FF216B1C48FFF76CFF9E
:1004F800E16B1B48FFF768FF15F0800F0AD115F470
:10050800004F0CD11748FFF75FFF06991648FFF711
:100518005BFFF8BD39461548FFF756FFEFE7314650
:100528001348FFF751FFEDE7C0180008D01800087E
:10053800E0180008F0180008001900081019000851
:10054800201900083019000840190008501900083F
:100558005C19000800ED00E06C1900087C1900081F
:100568008C190008BC190008C41900089C19000857
:10057800AC19000883691A888A4201D000207047A4
:100588000268033A012A03D80233836101207047C5
:100598000020704782B00023019300932C4A13680F
:1005A80043F4803313602A4B1B6803F40033009331
:1005B800019B01330193009B1BB9019BB3F5A06F0D
:1005C800F1D1234B1B6813F4003F06D0012300939D
:1005D800009B012B04D002B0704700230093F7E77B
:1005E8001C4B1A6842F010021A601A6822F00302C3
:1005F8001A601A6842F002021A60A3F580535A681A
:100608005A605A685A605A6842F480625A605A6856
:1006180022F47C125A605A6842F4E8125A601A6846
:1006280042F080721A600A4B1B6813F0007FFAD000
:10063800074B5A6822F003025A605A6842F00202D5
:100648005A60034B5B6803F00C03082BF9D1C2E72F
:10065800001002400020024008B5FFF79BFF08BDCC
:1006680008B5104B1A6842F001021A6059680E4A20
:100678000A405A601A6822F0847222F480321A60A2
:100688001A6822F480221A605A6822F4FE025A601C
:100698004FF41F029A60FFF7DFFF044B4FF0006230
:1006A8009A6008BD001002400000FFF800ED00E06D
:1006B8001F4B5B6803F00C03042B15D0082B17D0D5
:1006C8001BB11C4B1C4A1A6002E01A4B1A4A1A60EA
:1006D800174B5B68C3F30313184AD35CDAB21549A6
:1006E8000B68D3400B607047124B134A1A60EFE750
:1006F8000F4A53685268C3F38343023312F4803FAE
:100708000AD00B4A526812F4003F0BD00C4A02FB85
:1007180003F3084A1360DBE7094A02FB03F3054ABF
:100728001360D5E7044A02FB03F3024A1360CFE7DC
:10073800001002401C00002000127A000C0000206B
:1007480000093D0010B5164C01220921204600F091
:10075800B0F801220A21204600F0ABF801220B2153
:10076800204600F0A6F801220C21204600F0A1F84E
:1007780004F5806401220E21204600F09AF8012237
:100788000B21204600F095F801220C21204600F0AC
:1007980090F801220D21204600F08BF810BD00BF13
:1007A80000080140F8B505460F462B4C23889BB23C
:1007B800C25C2A4E02F001020921304600F088F896
:1007C80023889BB2EA5CC2F340020A21304600F05B
:1007D8007FF823889BB2EA5CC2F380020B21304683
:1007E80000F076F823889BB2EA5CC2F3C0020C21C1
:1007F800304600F06DF823889BB2EA5C06F5806607
:10080800C2F300120E21304600F062F823889BB232
:10081800EA5CC2F340120B21304600F059F82388F5
:100828009BB2EA5CC2F380120C21304600F050F80B
:1008380023889BB2EA5CD2090D21304600F048F8C3
:10084800238801339BB2238023889BB2BB4200D00C
:10085800F8BD00222280FBE7B80100200008014013
:100868000F291FD810B407290FD90839C9B243680E
:1008780089000F248C4023EA04034360436802FA8A
:1008880001F11943416010BC7047036889000F24C7
:100898008C4023EA04030360036802FA01F1194358
:1008A8000160F0E7704708B50A790978FFF7D8FFC3
:1008B80008BD0F2900D9704700B585B00B460292D4
:1008C80004A921F80C3DFFF7EEFF05B05DF804FB25
:1008D8000F2905D8012A04D0012303FA01F1416147
:1008E8007047012303FA01F10161704770B50646AC
:1008F80000252C4603E00134E4B20135EDB2072CA3
:100908000FD846FA05F2074B03EBC40102F00102C7
:10091800097953F83400FFF7DBFF072DEBD10025E9
:10092800E9E770BD6000002008B5054B03EBC00186
:100938000022097953F83000FFF7CAFF08BD00BF4D
:100948002000002010B500240AE0074B03EBC40187
:100958000122097953F83400FFF7BAFF0134E4B2F1
:10096800072CF2D910BD00BF2000002070B500246C
:100978000AE0124B03EBC4010122097953F8340051
:10098800FFF797FF0134E4B2072CF2D9FFF7DAFF3B
:10099800002410E00A4D05EBC4060122317955F810
:1009A8003400FFF786FFFE22317955F83400FFF74F
:1009B8008FFF0134E4B2072CECD970BD2000002071
:1009C8006000002038B5054600240EE0FFF7BAFFA6
:1009D800285DFFF78BFF2046FFF7A6FF01220221C3
:1009E800034800F08DFA0134E4B2072CEED938BD83
:1009F800002C0140F8B506460F4600250BE00135EE
:100A08000FE006EBC500FFF7DDFF0134E4B2064B4B
:100A18001B78A342F5D8BD4205D2044B1B78012BA5
:100A2800EDD00024F3E7F8BDA1000020A0000020CD
:100A380010B41F280ADD3B2812DC0A4C6168012229
:100A480002FA00F30B436360104607E0054C216887
:100A5800012202FA00F30B432360104610BC7047D2
:100A68000020FBE700E100E0304B5A6822F0010269
:100A78005A605A6822F002025A6001282AD0A8B1A6
:100A880002283FD0294A136843F001031360274B1B
:100A98001B6813F0020FFAD0244B5A6822F00102A7
:100AA8005A605A6822F002025A6070471F4A136857
:100AB80043F0010313601D4B1B6813F0020FFAD0BB
:100AC8001A4B5A6822F001025A605A6822F0020250
:100AD8005A607047154B1A6842F480321A601A68D7
:100AE80022F480221A60114B1B6813F4003FFAD0DD
:100AF8000E4B5A6842F001025A605A6822F002020C
:100B08005A607047094A136843F080731360074BB3
:100B18001B6813F0007FFAD0044B5A6822F00102D8
:100B28005A605A6842F002025A6070470010024048
:100B38001B4B5A6822F400325A605A6822F48032F9
:100B48005A60012817D038B1022823D0144A5368B4
:100B580023F4803353607047114B5A6822F40032F3
:100B68005A605A6842F480325A600D4B1B6813F47D
:100B7800003FFAD070470A4B5A6842F400325A6074
:100B88005A6842F480325A60054B1B6813F4003FE0
:100B9800FAD07047024A536823F480335360704791
:100BA80000100240024A536843EA80405060704790
:100BB80000100240024678B1084B5968C07841EAF3
:100BC800001159605968107941EA00215960596843
:100BD800127941EAC2225A60704700BF00100240F1
:100BE80090B110B504460078FFF73EFF2378022B3A
:100BF80003D02046FFF7DEFF10BD6078FFF798FFAF
:100C0800A078FFF7CFFFF4E7704700001F2933D81B
:100C1800012815D010B1022824D07047012A08D025
:100C280019484369012202FA01F123EA01014161ED
:100C380070471548436902FA01F119434161704749
:100C4800012A08D01048C369012202FA01F123EAF7
:100C58000101C16170470C48C36902FA01F11943E7
:100C6800C1617047012A08D007488369012202FA46
:100C780001F123EA0101816170470348836902FA9F
:100C880001F11943816170470010024038B1012811
:100C98000BD0094A136823F0020313607047064A11
:100CA800136823F004031360F3E7034A136843F05F
:100CB80004031360EDE700BF10E000E001FB00F162
:100CC800074B596007490A60074A012111701A68E1
:100CD80042F002021A601A680A431A60704700BF9D
:100CE80010E000E0BC010020BA01002008B50B4B61
:100CF8001B7813F0010F0BD1094B1A6822F002027E
:100D08001A601A6822F001021A6000225A609A607A
:100D1800044B1B689847024B1B6808BDBA010020AA
:100D280010E000E0BC01002089B28185704789B2DB
:100D38000185704711B1012907D0704703889BB21C
:100D480023F001039BB203807047038843F001033B
:100D58000380704711B1012907D0704703889BB2FF
:100D680023F002039BB203807047038843F0020319
:100D78000380704711B1012907D0704703889BB2DF
:100D880023F080039BB203807047038843F08003FD
:100D98000380704703292ED8DFE801F0020F1A25D7
:100DA80003889BB223F020039BB2038003889BB285
:100DB80023F040039BB203807047038843F020036D
:100DC800038003889BB223F040039BB203807047E3
:100DD80003889BB223F020039BB20380038843F06F
:100DE800400303807047038843F02003038003888F
:100DF80043F040030380704711B1012907D07047C1
:100E080003889BB223F010039BB2038070470388CA
:100E180043F0100303807047012910D011B1022953
:100E280018D0704703889BB223F480739BB2038069
:100E380003889BB223F400739BB203807047038836
:100E480043F48073038003889BB223F400739BB23E
:100E58000380704703889BB223F480739BB203809E
:100E6800038843F400730380704711B1012907D048
:100E7800704703889BB223F008039BB20380704736
:100E8800038843F008030380704711B1012907D094
:100E9800704783899BB223F001039BB2838170471B
:100EA800838943F001038381704738B505460C46B2
:100EB8000968FFF739FF61682846FFF738FF217A8C
:100EC8002846FFF747FF617A2846FFF753FFA17AC4
:100ED8002846FFF75FFF217B2846FFF78DFF617BE0
:100EE8002846FFF799FFA17B2846FFF7BEFFE17B65
:100EF8002846FFF7CAFFE17A2846FFF71BFF38BDEF
:100F080001FB02F292B28285038843F00103038059
:100F1800038A13F0010FFBD003889BB223F001036F
:100F28009BB2038000238385034A138A9BB223F074
:100F380001039BB213827047002C014008B50F4B88
:100F48001B7813F0010F0ED10D4A93899BB223F041
:100F580001039BB2938113889BB223F001039BB2D8
:100F6800138000239385074B1B689847044A138A0C
:100F78009BB223F001039BB2138208BDC00100207D
:100F8800002C0140C401002008B547F6B67102489C
:100F9800FFF708FC08BD00BF081A000810B582B0AA
:100FA80001248DF8004000238DF804308DF80530B9
:100FB8008DF803306846FFF713FE224602210846E3
:100FC800FFF724FE224603210220FFF71FFE2246D8
:100FD8000B210220FFF71AFE02B010BD00B585B044
:100FE8001920FFF725FD10220021684600F032F88D
:100FF80001238DF80B304FF4FA53019300238DF839
:101008000C3069460248FFF750FF05B05DF804FB55
:10101800002C014008B5FFF7C1FF0020FFF736FE9E
:10102800FFF790FBFFF7DAFFFFF7A0FC044A012166
:101038007D20FFF743FE03210248FFF7DBFCFAE7B8
:10104800910F0008A4000020014B1868704700BFEA
:10105800C400002003460244934200D1704703F8BD
:10106800011BF9E730B5141E05469BB0184605DA92
:101078008B234FF0FF302B601BB030BD4FF4027351
:10108800ADF80C300CBF234604F1FF3302930593EF
:101098004FF6FF7300910491ADF80E3002461E9B87
:1010A8006946284600F072F8431CBCBF8B232B60AE
:1010B800002CE1D00022009B1A70DDE707B50093F1
:1010C80013460A46014603480068FFF7CBFF03B002
:1010D8005DF804FBC40000202DE9F0478E688246C5
:1010E8009E420C469046994637D88A8912F4906FEA
:1010F80031D00223256809696F1A656905EB450532
:1011080095FBF3F509F101033B449D4238BF1D46A9
:10111800530530D5294600F035FB064650B90C2357
:101128004FF0FF30CAF80030A38943F04003A38191
:10113800BDE8F0873A46216900F0B4FAA38923F4A0
:10114800906343F08003A38126613E4426604E46A7
:101158006561ED1BA5604E4500D94E4632464146B5
:10116800206800F0AAFAA36800209B1BA3602368EC
:101178001E442660DCE72A4600F05EFB064600288F
:10118800E2D12169504600F0B1FAC8E72DE9F04FE5
:101198009DB003938B8980461D060C4616460FD5D5
:1011A8000B696BB9402100F0EDFA2060206128B985
:1011B8000C23C8F800304FF0FF30C7E040236361CC
:1011C8000023099320238DF8293030234FF0010B99
:1011D8008DF82A3037463D4615F8013B0BB1252BD3
:1011E8003ED1B7EB060A0BD053463246214640465D
:1011F800FFF772FF013000F0A480099B5344099364
:101208003B78002B00F09D8000234FF0FF32CDE9A2
:101218000523049307938DF853301A932F4605221C
:1012280017F8011B4F4800F02FFA049BD0B9D906D4
:1012380044BF20228DF853201A0744BF2B228DF873
:1012480053202A782A2A15D02F4600200A25079AE3
:10125800394611F8013B303B092B4DD9B8B10FE0A5
:101268002F46B8E73F4A3D46801A0BFA00F018436C
:101278000490D3E7039A111D12680391002A01DB39
:10128800079204E0524243F00203079204933B782A
:101298002E2B0CD17B782A2B33D1039B02371A1DB6
:1012A8001B680392002BB8BF4FF0FF3305932E4DF8
:1012B80003223978284600F0E7F938B14023401B6B
:1012C80003FA00F0049B013703430493397806229C
:1012D80026487E1C8DF8281000F0D6F9002838D052
:1012E800234B13BB039B073323F0070308330393F4
:1012F800099B4B4409936DE705FB023201200F4619
:10130800A6E700230A25194601370593384610F841
:10131800012B303A092A03D9002BC8D00591C6E71A
:1013280005FB012101230746F0E703AB00932246A2
:10133800104B04A94046AFF30080B0F1FF3F81464F
:10134800D6D1A3895B063FF536AF09981DB0BDE835
:10135800F08F03AB00932246064B04A9404600F0E9
:1013680081F8EAE7BE990008C4990008C8990008FE
:1013780000000000E11000082DE9F04791461F46E3
:101388008A680B6906469342B8BF1346C9F800300D
:1013980091F843200C46DDF8208012B10133C9F8DA
:1013A80000302368990642BFD9F800300233C9F8E3
:1013B8000030256815F0060507D104F1190AE3681D
:1013C800D9F800209B1AAB4229DC94F843302268F4
:1013D800003318BF012392062ED404F14302394684
:1013E8003046C047013021D02368E56803F0060382
:1013F800042B18BF0025D9F800204FF0000908BFBA
:10140800AD1AA368226908BF25EAE5759342C4BFEF
:101418009B1AED181A344D451AD1002008E0012313
:10142800524639463046C047013003D14FF0FF30AD
:10143800BDE8F0870135C2E73020E11881F84300A4
:101448005A1C94F845102244023382F84310C4E72A
:101458000123224639463046C0470130E6D009F11B
:101468000109D8E72DE9F04301F1430C0C46097E48
:1014780085B06E291746064698460C9A00F0B38048
:1014880022D8632936D00AD8002900F0B980582913
:1014980000F0838004F1420584F8421032E06429A8
:1014A80001D06929F6D120681368050603F1040103
:1014B8002AD51B681160002B03DA2D225B4284F8C1
:1014C80043206F480A2239E0732900F09D8008D82C
:1014D8006F2920D07029DDD1236843F020032360D1
:1014E80003E0752917D07829D4D17823654884F882
:1014F800453055E0136804F14205191D1B68116059
:1015080084F8423001238CE01B6810F0400F116012
:1015180018BF1BB2CFE713682568181D106028068E
:1015280001D51B6802E06806FBD51B886F2914BF2C
:101538000A2208225248002184F843106568002DC9
:10154800A560C0F29580216821F004012160002B7C
:101558003DD1002D40F08E806546082A0BD12368C6
:10156800DB0708D5236962689A42DEBF302305F895
:10157800013C05F1FF35ACEB05032361CDF8008094
:101588003B4603AA21463046FFF7F6FE01304DD10F
:101598004FF0FF3005B0BDE8F083394884F84510B6
:1015A800136821681D1D1B6815600A060BD5CA073C
:1015B80044BF41F0200121601BB9226822F02002BB
:1015C80022601022B7E74D0648BF9BB2EFE7654699
:1015D800B3FBF2F102FB1133C35C05F8013D0B4686
:1015E8000029F5D1B9E713682568181D61691060ED
:1015F80028061B6801D5196002E06A06FBD5198028
:10160800002365462361B9E71368191D11601D6839
:1016180062680021284600F037F808B1401B606076
:1016280063682361002384F84330A7E723692A46C7
:1016380039463046C0470130AAD023689B0713D4E7
:10164800E068039B9842B8BF1846A3E701234A46BF
:1016580039463046C04701309AD00135E368039ACD
:101668009B1AAB42F2DCEBE7002504F11909F5E718
:10167800002BACD1037804F1420584F842306CE7C2
:10168800CF990008E099000810B5C9B20244904209
:10169800034601D1002303E01C7801308C42F6D1C7
:1016A800184610BD10B5431E0A44914200D110BD22
:1016B80011F8014B03F8014FF7E7884210B501EB29
:1016C800020307D8421E99420AD011F8014B02F8CA
:1016D800014FF8E78342F5D98118D21AD34200D1D5
:1016E80010BD13F8014D01F8014DF7E738B505466F
:1016F800002943D051F8043C0C1F002BB8BFE41854
:1017080000F0D0F81E4A1368104633B963601460BD
:101718002846BDE8384000F0C6B8A3420BD9216876
:101728006218934201BF1A685B68521822606360AE
:101738000460EDE713465A680AB1A242FAD919685B
:101748005818A0420BD120680144581882421960E9
:10175800DED110685268014419605A60D8E702D98E
:101768000C232B60D4E7206821188A4201BF116836
:1017780052680918216062605C60C9E738BD00BF23
:10178800C801002070B5CD1C25F0030508350C2DC7
:1017980038BF0C25002D064601DBA94203D90C23CE
:1017A8003360002070BD00F07DF8214A146821469E
:1017B80091B9204C23681BB9304600F063F82060CB
:1017C8002946304600F05EF8431C24D10C233046ED
:1017D800336000F068F8E4E70B685B1B18D40B2B48
:1017E8000FD90B60CC18CD50304600F05CF804F1EE
:1017F8000B00231D20F00700C31AD3D05A42E25031
:10180800D0E74B688C4216BF636013600C46EBE769
:101818000C464968CCE7C41C24F00304A04205D058
:10182800211A304600F02EF80130CFD02560DBE7D2
:10183800C8010020CC010020F8B5074614460E4622
:1018480021B9BDE8F8401146FFF79CBF22B9FFF760
:101858004DFF25462846F8BD00F026F8A0420FD2D5
:1018680021463846FFF78EFF05460028F2D031465C
:101878002246FFF717FF31463846FFF737FFE9E7FB
:101888003546E7E738B50023054C0546084623608A
:10189800FEF770FD431C02D1236803B12B6038BDED
:1018A800D00100207047704751F8043C181F002BE6
:1018B800BCBF0B58C0187047537461636B206672C5
:1018C800616D653A0A000000205230203D20202535
:1018D8003038580A00000000205231203D202025D1
:1018E8003038580A00000000205232203D202025C0
:1018F8003038580A00000000205233203D202025AF
:101908003038580A0000000020523132203D20258E
:101918003038580A00000000204C52203D20202575
:101928003038580A00000000205043203D20202570
:101938003038580A0000000020505352203D20251E
:101948003038580A000000004653522F4641523A98
:101958000A0000002043465352203D2020253038FD
:10196800580A00002048465352203D202025303890
:10197800580A00002044465352203D202025303884
:10198800580A00002041465352203D202025303877
:10199800580A0000204D4D464152203D2025303840
:1019A800580A00002042464152203D202025303868
:1019B800580A00004D6973630A000000204C522F3A
:1019C8004558435F52455455524E3D2025303858AE
:1019D8000A0000005B486172644661756C745D0AB8
:1019E800000000005B4275734661756C745D0A0007
:1019F8005B55736167654661756C745D0A0000002C
:101A08007E7E7F807F7C7C7E80817F81827F7B7EE3
:101A18008385817C7D8082807E7E7F8080808083BC
:101A280083817A7A8085847F7B7D8283827E7E7EB5
:101A38007D7D7E7F808483807A797D8284838481A2
:101A48007D7A7C7F828583807F7E7E807F7C7E7F9F
:101A58007F7F80807E7E8080817F7E7D828483847C
:101A6800817F7C7D7E858886817C7B7D7F7F817E72
:101A78007E7A7A7B7E80807E7D82818080807D7F79
:101A88008082838385827D7A7E8384817B78757A60
:101A9800808585807B7D7E818687847E7A7B818731
:101AA8008988817C7B7D828583807A797B7F807F32
:101AB8007F7F817D7B7F8382807B797C8386858124
:101AC8007D7E81827C797C7D82838280807E7B7B27
:101AD8007B8789887E797D7B81818783807D7B7EFA
:101AE8008284807F7E807C7B7A80888880787A81F7
:101AF8008283807E7C7B797D828585807E7D7E80E9
:101B08008181837E7B7A7D8383827E7D7D7E7E7CE0
:101B18007E80808080817C8184898984807A7C77BA
:101B2800797D888A827972778288837E78757780D2
:101B3800878A88887E7F7F7D7F8086807E75798290
:101B4800888582827D7D7D807F807F7F7E7E807F8D
:101B58008080817F7A787C8082818083817E797C95
:101B680080838480807F817979818887837B787B73
:101B7800838581827D7F7F8888877D74747984845A
:101B8800827E7D7E77788188898581787F848D8C37
:101B980086817275767E818282827F7E7E81838451
:101BA8007F75757A8684848484807A7B7F84827B3F
:101BB8007C82807F7B7B8284807B7A7D82837E7A35
:101BC80080838685817F7A7E8082817D7C7C807D12
:101BD8007F7E80857E7B8085878178767884858204
:101BE80084817C7578808386837E7C8087898A84DB
:101BF800827A72787B828081828183838284877BE8
:101C08007674787C81878A8B7F77757F85807A75F3
:101C18007A807F7F81828383827F7D7D7D848780B8
:101C28007A7B818789847B787C7C827E7D7B7E84BD
:101C3800807D7980838883817F777D838A84837F91
:101C48007C7B7370758484847E79888C908F837B89
:101C580070747A818783817D808A908B857C716C92
:101C68006D7C8C8F8378747A7E858986796F717D97
:101C7800898B887F7E7F807C7D80868175747C8956
:101C88008A857B77777E878A837A787D87908D832C
:101C980078747E858A847C71767A82867F7F7E825C
:101CA8007B75757F848376787D86979295806F6D36
:101CB800778A8A84726A728291999583756C6F7D2E
:101CC80087868182807B7A7F8A9084726D7381890E
:101CD800867F7C7A797E86867F7A7B858C85777D00
:101CE800848685827E7D7F7C7A798084857D7876FE
:101CF800757B878D88796E7A888B8785837D767BDF
:101D0800848A837C7570747F868E968D89777274C9
:101D18007F887A7974787E89938F867C79787B7DC1
:101D28007B777A82848485817D7C7E7C797B7B84C9
:101D38008C88847D7D7D7E7F7F85858383817D7D85
:101D48007A7F8487817A777A8285817B7D7B7F7CA5
:101D58007D82827C797E85878883787B7981848D72
:101D6800867A767985837E70767D8F928688828161
:101D78007575797B80807F848481858B8982756B7A
:101D8800707F88828180818482817D7D7E7A7A7B62
:101D98007A7D7D858A81787376808789857F7A7553
:101DA8007B868A89817F7B7779828C8B898278741C
:101DB80079868B88807978797C83837E797D858420
:101DC800877E817F7C7D7B817D7F7A75777D858627
:101DD8008888808686837B74727480878B89857FE8
:101DE8007C80848C897F7471767F8E94887B726EF8
:101DF8007A848B85797474787D84898B7E6E6F7A0A
:101E08008C988E7C7072808B8F8981777378828AA8
:101E1800877E7977747C828A8A7F777680888A89B8
:101E2800857B757C848483807D7B7B787B818580C2
:101E38007C7D7F8083867B787A7E7D78757C7F87C2
:101E4800999A957F6F747D867C73787A817F888C68
:101E58008D85786F6C7A848C8D877C7775838E8E70
:101E68007E7476777D828886857A7479828381808C
:101E78007B7A7E7E7D83867F76767D8C8B7E7C806A
:101E88007E787A838D8A7D787C8480787A81878A47
:101E9800847B787581878B857B72738385847F7E4D
:101EA800818381797E868480736D6F7A838B978B2B
:101EB8008479777C7F7F777D84827C7A828D8D8917
:101EC800857F7975727D898F8A7A7074818B888312
:101ED8007A717376818E8A7D76787F808485838116
:101EE8007C7A8184848281837F7E76787F848384F0
:101EF80081787879848586827B7D7F8181818383DF
:101F0800868883837B767D8A897C737381867B72DE
:101F18007B84877F7A848582746A75818A88898BB5
:101F28008B877A797B817E767A767A7E8893958B91
:101F380078717581817B7D8489847C7A82837D7BBD
:101F480084837A7173858D8977747A848A8280799B
:101F58007B7C7B858A867C787C7F83827F827D7987
:101F68007B8587817E7E828582797E828984797E5F
:101F780083827D8088887A6F7884817D797E817D6F
:101F88007C7A83817F7578808B917F827E7D737167
:101F9800849094868186807A777F8A8473656E7F41
:101FA80090978A81776F7177858E89797A8286860C
:101FB8007C817E7D7A7A80817F757C80817E78764F
:101FC8008189857F7E7C7C85888B817A7B82857FF1
:101FD8007E82838581767B8186807B7A7D858380FE
:101FE8007C7E7C7C82838A877C7A7B7C7A818583F1
:101FF8008376757C818282847C7D7F7D82837C71FF
:102008007D807F928D89847B7C7A8089837A7271C6
:102018007E8A8B8B897772747A888D8576778185AD
:1020280086807F7D7D7A7B818380807F7A797D83BE
:10203800848478787C88918B7C727678808284829C
:102048008176798682807F84898A796B758A918C7A
:10205800847A7A7F7E7E8585807D7981817F747B95
:102068008680837C7C7F807672737F8B8C8D84786E
:102078007A80839287786E6F7E8A919087786E6F68
:1020880077888E88817B7A787A848C887E74727956
:102098008A928B8071717A89938D8072707C898A1B
:1020A800837E7B7571747E8588877B777475808C59
:1020B800968D79737887928A84817F7D797E7E85F3
:1020C800847D7874747887878A856F79828181792D
:1020D8007F808082828589847A7B7B808E8A8179E1
:1020E8007374818E8C7F736F767F858C8381837305
:1020F800727A88998E7C757579838A8E84716F71EE
:10210800828C827D7F8282796F81897E8175788DCC
:10211800908B827D757F817888827C7B75808185B4
:10212800868176777B7D89877C7F84868778747EB5
:102138008988827C7A7F80807D7E87867F7B78779E
:102148007B86908B77636B7E918C8480788E857983
:102158007B777C8181787C837D8E907A7E7B798287
:10216800857E818B87887B777A81897F817B74796B
:102178007D86857C746D7C878688867F6F7478867B
:10218800988E7562687388918B9E92757E75788C2F
:102198008D7F71766F778993977B68728085888643
:1021A800817F777F85848E8777757D88857C727B34
:1021B80086807E7A7A7D78798185857D7B7B787A41
:1021C800777A81827D859A8C898F75707D827E87EA
:1021D8008E807B747B8B8A80797A757C82838885F4
:1021E8007F73778581868377778088817B7A787F0C
:1021F80084827C7E827E838685827C7A7078817BED
:102208008084846E77908999A0765A6984909A8997
:102218006E7877798B8F867B7D736F8288888377DA
:102228006A708689868479747F88868188897B7EAE
:102238007E808D8C7E787C7D797A7E7E7A6C6970E2
:1022480096B892707271737E8E8A85857376898945
:102258008F907F6C7282838C8E7B706A697E979177
:1022680076777F7276888B8A887A727D878A8C8760
:10227800827D7F76758A81696E7F7A728C9987896B
:10228800836B687C8F888D8870777D81919A84694B
:1022980073837F86887F7D787679888F8478777452
:1022A8007C877F7D83827C787988938A7C6F718034
:1022B800837F7E8774687398AC8881876E5F769118
:1022C80090827B6A758D8B828485767881868683F9
:1022D8008278757F858B877D737C7B7C8687837A04
:1022E8007C78828784878668688589857A7A6F6929
:1022F8007387AFAA756B7C7874828F8B8A78657BBD
:10230800918B828C856E7A7C838885766E7F8181BD
:102318008487817A78787E8F897D737A8688816FC1
:1023280074818C7A848E7A697568689CB49C716DA6
:102338007983787C868C8A776E788C837D84838297
:102348007E7E808386767D7F7E888C84777D75749B
:102358008E89787E897F6C7B807F87877A7D817D77
:10236800787D6A6C8F9AA9796478867B6F8C8D8B5F
:1023780089746F818B7B7D897A7C827D7983897D65
:102388007F8682726A82968B76727E858074808759
:10239800827B82897B74798270768EA6A36869862F
:1023A8008C797388888D796A7F8F817889887A7E1D
:1023B8007A737E8B817A7F7A7E76738899816A7A3E
:1023C800817F827F797F8778747E8577727B9ABBDD
:1023D8008154759784737E818E937470888B7F7F08
:1023E800817C87817A798384807B7A7A7F797C91F2
:1023F8008171717E857F7A7A8A7C6F828279727622
:102408008FC28F50719788717A738A9A7465888D94
:102418007B7D8377838C7C8189867775777F8583BD
:10242800867A797B7E82797982947E71727E827FC8
:102438007B8CBE7F517990888279678698766D8487
:102448008A838878738A837E897D707F847080927E
:102458007F7D7E796E8087747A8788706C7788979D
:10246800AC9D5767978D787A7B84947762859D8534
:10247800747C7B88887A7D8376747B7880898B7E70
:102488007C7B797A7C767A87846B658C7F80BBA726
:1024980055609C8C6E797987997C6F838D887F8055
:1024A8007B7F967A74817C757670808F7E80757B51
:1024B8007D787E797A686B8290C4A369768B867200
:1024C80077757D8788808A907B7E84717E8B807902
:1024D8007E7C7983777E867B7B83787C7B7578842A
:1024E8007D797C71767FAFA16873898279767583EF
:1024F800966D6F96917B787A859F7C687E867475D9
:102508007D7F817B7B8E7F72716E667A9097BD8BA3
:102518006D85927C737E6D6F7F798D9B86828188B5
:102528007D756C7E787789848D8F7867857E707FDE
:1025380084848180807A7372806E90B06F73948087
:102548007684767686797C8D867D82828A8C807286
:10255800758283837A84897E738172635F628496CD
:10256800C08F73909584777F6A63717E878D82911F
:102578009B9787746C7C6C647D707F918E8B877C55
:10258800898072726F6C79736C887FA6AA72829840
:10259800787181606C89808A817E9399867F86793B
:1025A8007E736D807D7F7A8084876F775B6C8A937A
:1025B800AC68838CA09986725E70747E6F798B9FED
:1025C8008F949790736B706B716C737B90938D8EF7
:1025D8007F8583766464686CA2868896909B8E88D3
:1025E8006B6F706A61728B9794949B998F7A7467FA
:1025F8006E61696C768E8877778CACB0686E7B8DEF
:10260800896E73808F7B78728D8F7A7B82909082AF
:10261800727F8D7C6B6E73827D6F787F7D74708125
:10262800AB95747688A98A7576807E676284927A7B
:102638007C89A6A58879788A765A627A78697682BA
:102648008A797B77A4B27C6A7BA98E6F6C86866751
:10265800637989827D849D9D897B838674666D7D7F
:10266800756E738671677A92B5877588A494747647
:102678008C8A5F5A738B7875899C9F8E86908E782A
:102688006D696F6468727873687B8EB19D8483A16D
:10269800A2776F7D895F5C6B7B79798398A6948537
:1026A8008C9A8369667F6D5969777768727CA8AE62
:1026B8008B7A96B888697695715263767A70788B3A
:1026C800A39A8D8E9F947A6878765C5A6A765F6151
:1026D8007EB3A87A7EB2BB7E6B89946651637770AD
:1026E8006677929C90929AA39075748779555870E2
:1026F8007559617FA49C8382A9B383788B90685EA7
:10270800687B70616F8B978B8795A8967A78897F9D
:10271800675B6972625C739C977C7FB1B3857E98B6
:102728009A75636779745F607E8B7E7B939F9688CA
:10273800888F8D7B696E74675562838B757593A9D5
:10274800988C909D917F73747D7567677C7A727998
:10275800888A8988878B8E8274727775767E797578
:102768007D8C8680848D8B838384807A7E81817F33
:102778007F818282818285817A7B807E75767C7E6C
:102788007977787A7F8181808485868583827F7D49
:102798007F83827D7D818685818586857F7F7F7E1B
:1027A80079787D7978767A7C7D7A7C828283818655
:1027B800868481817F7E7F808080828381828983F5
:1027C8007A828883737D807C796F7A817D6A737E53
:1027D80085807C80838D898681888D8A84828584A2
:1027E8007E7C7D7D7978787D7F7C7C7B776F6F7B45
:1027F80086816C748D94867F9497927E85888B7D74
:10280800727A8083707B80857A7B7F81847E757401
:102818007C716580967C5C79A18F77849F93898190
:10282800838E907464859275657B86817D777A8ABC
:102838008C756B7A6C647B97715C87A689759EA989
:10284800947E858D917F66758A786279847476879F
:102858007876928D6D6F917E5B6289957365749BB6
:102868009A838098A1857C85968D716A808F796519
:10287800708689746E7C8F7F686E7366759A825CC9
:102888007BB3986F93B495798C917C777A767A81BB
:102898006F68848D756E828A7F7B7B7A74655975C3
:1028A800A87F4C6FB6A26886AF9E7D8D8B81868689
:1028B80070729182686B877F727580857D786E7B78
:1028C8007A6F587DA37E5C71AE9F7D88A296838DBA
:1028D8008477808C7369858F726A848878737F792E
:1028E8007C76746A6D707196866E6C9AA287879AE8
:1028F8009A868A847D7A8378787D7D7473837F7CD9
:10290800767D7F807974786E736E7989827C748C19
:10291800908887909383898C877D82858485837B43
:10292800757C80807F7C7B7B7F7F77767D7A7671F4
:102938006C83867C777F8A80848A92868189868563
:1029480085837D7F86837A7A847F7882827B78818B
:10295800807A7877787B7777807F7F727E847F83B1
:10296800868D83878A88858A8D7F7E87897D7B840B
:102978007E7784877C787D7C79797A79767B756EA9
:1029880078827A767B80817D848A86858887898823
:102998008A8B858485858480827E7F867F797C8109
:1029A8007F7D7F7B77787979787475787D7A7A7F7F
:1029B8007F7E8488858387898486868886848585C2
:1029C80083828185877D7A7F83807C7B76767E7D16
:1029D80076757776757979797B7C7C7C7E80838542
:1029E8008586858787868B89858685868581828287
:1029F8008283817F80807C7C7D7B7A787577767511
:102A0800787775787A77797D7D7E808286868686E6
:102A1800888A878688868686868584838485828157
:102A280081807F7F7F7E7C7B78787A7875757774F4
:102A380074777979797B7E81818485858788878891
:102A480088888888858586848382807F7F7F7F7E4B
:102A58007D7C827E78797B7978787878767A7879CF
:102A68007B7A7C7D80808083848585868687858740
:102A78008884858584858584838281817F7F837F1F
:102A88007C7C7C7B787678767579777878787A7CB0
:102A9800797D7F7E81848383858689878A898787F4
:102AA800888586868387838282847F7E817B7C7B00
:102AB800797877757774737B727579757A7B7C7F93
:102AC800818085858586898988898A8A8587878797
:102AD800858686828381807E7C7E7C79787878780A
:102AE80077777574757677767679797A7D8180824D
:102AF8008787878A8A878A8B8B87868987888A8946
:102B080087848283827F7E7F7A76787776746F6F08
:102B18006E6B7274727472777C7E838985868C8CF6
:102B28008E8E8F8F8E938E8F8E88888685857E7801
:102B38007D7B747979716F7070706D6E7070706F65
:102B48007B7D7A858985898B8D8E8E8E8C89888D03
:102B580089898884858180817E78787A757374768E
:102B6800747071756E707C787174817D8190938BAF
:102B78008B98959193968D888B8A8C8587817E7C9E
:102B88007D817776756E6B726D646D6C6C79726E23
:102B980072797E83898C8E889298919397958C8F81
:102BA800928A8B8787817F7B7777726E6B6B67647E
:102BB80067676778786C70807D7D93968E8893962A
:102BC80093969A968B8F928B878C8A7C7A7B74707B
:102BD800706E63626363626D7C726C72857E8292D2
:102BE800948984999190969F938593958F878E82E7
:102BF800787F7D7469716C62636561687C746C74DC
:102C0800847C849B9787869A938C939B94878F8ADE
:102C180087888D81787C74716E7668606160647471
:102C2800786D6F7A808493958F8992928E929A9616
:102C38008B908C8A8B8C847C7A77727072655F5DDE
:102C48005D71756F6F747B7B91958A888F948B9576
:102C58009898918E8D8A8E8A887E79767773726C31
:102C6800605F5A6878756C6B7A7D86948F888A94D1
:102C78008D909B998B8E94888A918C7A787E7774C4
:102C8800736E635D5F6B7E75666B7D8487958D84DF
:102C980088948E8E9A938A8D9787888E857A778185
:102CA8006D6A7372615763797E696A7C8A7F889DD1
:102CB800938A8E968C8F998B848E8B808889807569
:102CC800787369746D5C5666817C63718E917E85BC
:102CD8009E9491938B8995977E809589717B867E4A
:102CE80072767368766B5D6685825D72978F738482
:102CF800A595878D8F8D908C7988937C6E818B7646
:102D08006F7C786C71665E70866C5B8B9B7B70A544
:102D1800AA81899E98828D88818D836E799579673D
:102D28007D84696777645C7582626D9486708AAF0A
:102D380091809B9F8782968A818682778582707C24
:102D48007F70677A6C596A80715C87927474A1A7E6
:102D58007B8EA292808E97828384807E8274798112
:102D6800716A776F59677E765A7B93787294A97FD8
:102D780086A5998188A0897E87887B7C7E797875ED
:102D880072716D5F69737560758E79748DA88583AE
:102D9800A59C8289A489798A8E7B788679747479CE
:102DA8007267646D7074677189777B889D8888A263
:102DB80094868D9E897F8C8C7B7A877A75767770DE
:102DC8006968666C746A6C857978869B8B87A29231
:102DD800898F9989838D887E7F86797878767269DC
:102DE80069656A736C6D817E79849891869F968CEB
:102DF8008C968E828C8A817B867C79777A736B6CD1
:102E08006368706F687D7F7A809492859E968E8DB8
:102E1800958F848D89837B857E797779746A6E65D1
:102E2800666E7168777F77818E948596988E919378
:102E380097878B8C867D818477757876696D6764D2
:102E48006A72696D81787B88958C8D9C9290919639
:102E580090878C8B817D867D7776796E696F6265C8
:102E68006A76647384797E8C9B86949C948C949601
:102E780087888A8C7A83857A7976796B716A6067B4
:102E88006D73607E8176829194879A97948A9492E2
:102E980086868A8B76858379757B7A67717063609D
:102EA8007375637A847E7B9199839598918B9095BD
:102EB80086848D8C787F897C747B7B6B6E7167636D
:102EC8006E7C636F878279859F898D9A94899194A6
:102ED8008A88868E7B7B858271757E6F6974706146
:102EE8006573796175887C75919E8590A09986989F
:102EF800988F8289917A7A84816D7B7D6E69756FEE
:102F08006362727D5E6F88816B8AA185859F9D81D2
:102F18009099938087937B77828A71728276696FA2
:102F28007A6A5F65807062798B7E6E989E8689A2C8
:102F3800968391978E7C898B84777A8A70717A7B55
:102F4800656D766A6069856F69789B78729D9F82E6
:102F58008AA5908A8B968B87808789787C847A6FFC
:102F68007579756C70726C687B7C6D6F8D857389F3
:102F78009A908192908C8A8D878D8C7A858D8678AF
:102F8800847F767A7A6F6E7569676C7274706D7902
:102F9800807C8090908793928C92958B8F958D886A
:102FA80092908087867B7477706B6D6963686A62BC
:102FB80072766E7182817B8E958A8C9A928D9795A6
:102FC8008D9397898B94857E847F71747869696CF9
:102FD80067646B686273786C6F87837A8F988A8E60
:102FE800A0928C9F98889398858794857D877E6F1B
:102FF80075776A6A6D67656C6B696E7575727680D0
:1030080082808C908B909992919A908C928F898ED5
:103018008F8285847C797971676D69686966676A6A
:1030280072767E7A797E848C898B8B8B898E918B54
:103038008F8F8C898C8B878986817F7F77777A744D
:103048007275747477787977787776787876767811
:103058007A7E82838788888C8D8A8C8C888A8A86F7
:10306800868C8782827E727E8F7E7D7C7B7882844E
:103078007B79706D717774767876767D82818380BE
:103088007D82828384838686888A8A86868A8987DF
:1030980087888583858382817E7B7B797879797639
:1030A800757475767577757876787B7C7D7F828385
:1030B800868787888A8A8A8A8B8B8A88888987867E
:1030C80086858280817F7E7D7B7A78787775767534
:1030D800747476787879797B7A7B7D7E7F80828339
:1030E8008586878787898A8988878786858585846D
:1030F8008281818181807E7D7D7C7B7B79787877F8
:103108007778787777797A7B7B7B7B7C7E7F7F7F0C
:10311800808183858786878787888988868585854E
:103128008685838281818080807E7C7C7C7C7C7C9F
:103138007A7A79797A7A7A79797A7B7C7C7B7C7DE0
:103148007F80808081828383838384848485848450
:1031580084858584848281818180807F7F7F7F7E52
:103168007D7D7D7C7C7C7D7C7B7C7C7D7D7D7D7D8F
:103178007E7D7D7E7F7E7E7E7F808080807F80805A
:103188008082828181828383838283828281828317
:103198008280828381817F7F817F7E7F7E7F7E7D2B
:1031A8007E7E7C7D7C7D7D7C7C7B7D7F7F7E7E7C46
:1031B8007E807E7C808280807F8182818382818301
:1031C80082818384828381828281817F82848180DB
:1031D80081807D7F82817E7E7D7D7E7F807D7F7CFC
:1031E8007B807E807E7B7E807F7E7F7E7E7F8080F0
:1031F8007F7F807D8080827F8082808383817E82C2
:1032080084827F807F82837F818283807F7E7E7FAE
:10321800827E7F807E8182807E827E7A7A8B7970C0
:103228007E817A767D7B7C7B7C7780867A80897DBF
:103238007E878A7F768385897F7D7E8489817E8269
:10324800827B7F8B8E76787F879082767F837E7C69
:103258007B807C7D82756A7A8C7E777A74848A8397
:103268007679867E82827A868A7E778C97847D8636
:103278008E7B8087868785867880887C747F7F6B45
:1032880071776E6A7A7C6978766A71858A7E7983C5
:103298009396978A949998928E9290968882738042
:1032A80084787169706C75716661716E66666B6C35
:1032B8008091806D82AFA1918A979A9E9C83829417
:1032C80096848178737A887B666D7A7A7476656776
:1032D800706F5F6469788F887B74A0AAA59A9597A8
:1032E80095A083747C8B817774697981806C6C85F7
:1032F80082776D6D6B7273655680A2806C7CABA60D
:103308009F978C95A39B676D818778726B6889926C
:103318007A68878D8175746D707663526FA388693A
:1033280072A5AD9D9D858AA59D6B63798278766A25
:103338006589977E71878D827C756A6D6F5D57840C
:103348009D796C8DABA5A6917A91A28157707A78F8
:103358007E706681A089748993877F7C676D7459B4
:1033680050639992757698B5ADA47E7C929C6E4D0B
:1033780067767C796F6C8DA5927D86938A85735E5E
:103388006A6D58526B9A8D79849FB2AE9E747C9305
:10339800886250646B8080717E9DA98F84898C8936
:1033A8007C665E6F66545C72A49F7B7CA0BFAB9505
:1033B80074758480604964727D818088A1AE90862E
:1033C8008A87816B625F6F644E6270AAAD7F7E9B55
:1033D800BAA3916F71807B654E6776848B8787A1CE
:1033E800AD8D7B8581756D63606F6F5C6877AAAF03
:1033F800837B99B396896A69807964546E7A8C93D1
:103408008C8BA1A8887C80796E6B69676C6E626E04
:1034180079B0B07F799BB18F8B6A66797A67576D7F
:10342800798A9390889DA78B7A7F756B7168646E93
:103438007062717EB0AC7D7D9DAB8F8966687E7E43
:1034480063587180928F898EA39D867C7972716E84
:10345800646B737067727EB5AB717DA2A28A876652
:10346800668281625A77828E938889A49E817D8242
:103478006F6D6F686F736965767DACAC7577A3A661
:103488008B8A6D688287645D787D8793897F9C9835
:103498007E7D827070776874756C6675739FB27282
:1034A8006B9DB0908D766D8D8D635A757B83888406
:1034B8007E999B81858478737A66717669666E6970
:1034C8008DBF7F6791B094958265868F68587371B8
:1034D80083868280999C868F847F7879666D756AE9
:1034E80062686A82B88B6989B2A097886A87926C89
:1034F80059706D7C807A7F9090868C8989827A70E9
:103508007477736B66687AA0916E759BA1928876C2
:1035180088997E63717C888475758090807C7D84B1
:10352800837A7C808778707984807B7B757D8882BC
:103538007E7F858C8D867E8686817D7B777D837A6E
:103548007A7A7C81837A7A83827A7C79707C827CAD
:103558008682737F928982877F858C837981837A3B
:10356800827F7C857E7779827C859078767A7E8B5F
:103578008A716E7F7C8386757B84847F7F8688834F
:103588007D8088887D7A7C82857E767D7E7F7C7E44
:10359800817D94787089858375747D867C777F8634
:1035A80080797D868C817A7F8785817F8381807D04
:1035B8007980857D7D7682927F69728C9A95636227
:1035C800859F87647A86837D777A8A7E77808684EA
:1035D8007E7E7E88867C7D8582807F7D7C857E7EE2
:1035E8007D797B829479718C8F76758087847576E6
:1035F800828379787B8F817578818C7F7E7E8584C4
:10360800828283807E7E7D85827E857D79838886A1
:103618007C838480768283788A7E75787F817D6AD0
:10362800758A7C787A84858780808788847F8A7C7D
:10363800737D81887D6E7F8C8584827E8C8A7E7482
:103648007E8C776B7481858375788E807989837A8F
:10365800807F807A7B88808381797C868A7E7C8261
:10366800837D7B84807D817D7E84828083877E7E4E
:103678007D818F6D61868B7B717B8C837D7B8C8B51
:103688006E7B8B7B74787B828D7F76898C87857D3A
:103698007A84897A6575888E80708985798C877D2A
:1036A800828072798E7D7C848380818785827F7A0F
:1036B8007C7F828177777F78778E867B756D829322
:1036C800847C797683897D7B7E817E777F7D7E820F
:1036D8007C79808081817D8A7C73898B847C8386D8
:1036E800858881818280808581787C81817C7084D5
:1036F8008F6C61928765777A8C876A7C98827587E8
:103708008C8B83787F90847C8289837F85837E7E7F
:103718008288797085847D717E878570689F8E62C6
:103728006B8790756A898E7D738392847D818A8781
:103738007B7B8581817F7C7F84857880867F80857F
:103748007D7B7B778C85656E84867C717F858480A4
:10375800868A8980808F7F8085828185907E748C1F
:103768009778608290796A757E7A7675827B7477AD
:103778007A827F7884897D8A928084898889857A0B
:103788007D88847876857E717F827977767B838061
:10379800767F877F80837F808C817B8B8480838505
:1037A800838482807D83827B7C80807682877D682B
:1037B80070878D725F828873748D887D7C87918F06
:1037C800827D8F8B7F7D88857F8080817C7E7C7BDE
:1037D8007373787B736E6B7A88797486917C889121
:1037E800928788878A8C7F80818680817C827E7D93
:1037F8007C7A79777372706275837C6C7E8C878B28
:10380800898E948E7E898D7E7A8488817F82848356
:103818007C798078737070696F82776B82917F8909
:103828008D8D8E8E8289887C7C857F798981827E48
:10383800868185787875736771856F6E828E8088CA
:1038480088928E8D8387867A787E7C7F867E7F8637
:10385800887F857E7870685F7D7D68718F8B888FA3
:1038680094988E8980897771737C767F7D7D8B8C27
:103878008B83887D736768787B696F8D898C8D975A
:1038880098908A808778726D7D77807B8087879112
:10389800818777766475787369798C878E849B9530
:1038A800927E847F787773767A857683848C878214
:1038B800827B7362747E766A7F8B8C8C89949592F6
:1038C8007D807F787472767E827880899085818009
:1038D8007B7263717E7A6D7A8B908E8C8F91927FDA
:1038E8007C7A7976767677858383848F8A857D79E5
:1038F8007267737678717E7E8D918D8A8F907E7FC8
:103908007882767A78827F8283848983837A726ADE
:103918007B7D76757F82878889898D88837D7E7D8A
:103928007A7B7A7F81837D8386837D76717A7F79BE
:10393800757B7D85888784878B85837C817D807E68
:103948007F7C7F8482827D7B76797E817C787A7E9B
:1039580084878584827E8084837F807F818283823E
:1039680082817F7B777C7E7E7C7C797D808283836D
:103978007F7E80818283828183838483827F7C7C33
:103988007E7F7D7C7C7B7E818382807E7E8081833E
:1039980083817E7F8182827F7C7C7E7F7E7E7D7E2E
:1039A80080828281817E7F80818181807F80807F0B
:1039B8007D7C7D7E7E7E7F7E8183838282807F8107
:1039C8008080807F7D7F7F7E7E7F7F7E7E7E7D7F05
:1039D80081818181807F8181828180807F7F7E7EDD
:1039E8007D7E7E7E7E7F7F81828282817F808081D4
:1039F80081807F7E7E7F7F7F7F7F7E7E7E7F8081CE
:103A080081817F7F808180807F7E7E7E7E7F7F7FB9
:103A18007F7F80818181818081818180807F7F7F9C
:103A28007F7E7E7E7E7F7F80808080818181807F97
:103A38007F7F7F7F7F7F7F7E7F7F7F80808080808A
:103A48008080807F807F7F7E7F7F7F7F8080808077
:103A58008080808080807F7F7E7F7F7F7F7F7F8068
:103A68008080807F807F807F7F8080808080808052
:103A78008080807F7F7F7F7F7E7F7F7F8080808147
:103A880081808080807F7F7F7F7F7F7F8080808034
:103A9800808080807F7F7F7F7F7F7F7F7F80808027
:103AA800807F7F7F7F7F7F7F808080808080808015
:103AB8008080807F7F7F7F7E7F7F7F7F7F7F80800A
:103AC8008080807F7F7F7F7F7F7F808080808080F5
:103AD800808080807F7F7F7F7F7F7F7F80808080E6
:103AE800807F7F80807F7F807F7F7F7F80808080D6
:103AF800807F7F7F7F7F7F7F7F7F808080808080C7
:103B080080807F7F7F7F7F7F7F7F7F7F807F7F80B9
:103B1800807F7F807F807F7F7F80808080808080A3
:103B280080808080807F7F7F7F7F7F7F8080808094
:103B38008080807F7F7F7F7F7F7F7F7F7F7F7F8089
:103B480080808080808080808080807F8080807F6F
:103B5800808080807F7F7F7F7F7F7F807F80808065
:103B68008080807F7F7F7F7F7F7F80808080808054
:103B780080808080807F807F7F7F807F7F7F808044
:103B880080807F807F807F7F7F7F7F7F7F7F7F7F39
:103B98007F807F7F80808080808080808080808020
:103BA800807F7F7F7F7F7F7F7F807F807F80807F18
:103BB8007F80808080808080808080807F7F7F7F02
:103BC8007F7F7F7F7F7F7F80807F808080808080F5
:103BD8007F7F7F7F7F7F7F7F7F807F8080808080E7
:103BE80080808080807F807F807F808080807F7FD2
:103BF8007F7F7F7F7F7F7F7F8080808080808080C5
:103C08007F7F7F7F7F7F7F7F8080808080808080B4
:103C18007F7F7F7F7F7F7F80807F7F7F7F7F807FA9
:103C2800807F80808080808080807F807F807F8090
:103C38007F80808080808080807F7F7F7F7F7F7F84
:103C48007F7F7F8080807F807F7F7F807F80808074
:103C58008080807F80807F8080807F807F807F7F62
:103C68007F80807F807F807F807F807F8080808052
:103C78007F807F807F807F7F7F7F807F8080807F45
:103C88008080807F7F7F7F7F7F7F7F7F7F807F8037
:103C9800807F807F7F7F7F7F808080808080807F23
:103CA800807F7F7F7F80808080808080807F807F12
:103CB8007F7F7F7F7F7F7F7F7F807F808080808006
:103CC80080808080807F807F7F7F807F807F8080F2
:103CD800807F7F7F7F7F7F807F7F7F807F807F7FE8
:103CE8007F7F7F7F807F807F8080808080808080D2
:103CF8007F807F807F807F7F7F7F7F7F807F807FC7
:103D08007F80807F7F808080807F7F7F7F80807FB3
:103D18008080808080807F807F7F7F7F7F7F807FA3
:103D2800808080807F7F7F7F7F7F7F7F7F7F807F96
:103D3800807F807F8080807F7F807F808080808080
:103D480080808080807F807F807F7F7F7F807F7F73
:103D580080807F808080807F80808080807F80805E
:103D680080807F807F80807F7F7F7F7F7F7F7F7F56
:103D78007F8080807F8080807F7F8080807F7F7F42
:103D8800807F7F7F7F80807F7F807F807F80808033
:103D9800808080807F7F7F7F7F7F80808080808021
:103DA800807F808080808080807F7F7F7F807F8011
:103DB8007F807F7F7F7F7F7F7F7F7F808080808005
:103DC80080808080807F7F7F7F8080807F7F8080F1
:103DD8008080808080807F80807F807F7F807F80E0
:103DE800807F7F807F807F80807F80807F808080D1
:103DF800808080807F7F7F807F7F807F7F7F7F80C4
:103E08007F7F807F7F808080807F807F7F7F7F7FB4
:103E1800808080808080807F807F7F807F7F7F7FA1
:103E280080807F8080807F7F7F7F7F7F8080808091
:103E38008080807F80807F7F8080808080807F807E
:103E48007F7F7F7F7F7F7F7F7F7F80808080808074
:103E580080808080808080807F7F7F7F80807F805F
:103E6800807F807F7F807F7F7F7F7F80807F808053
:103E78007F807F7F807F7F7F7F7F7F7F7F807F7F47
:103E8800808080808080808080807F7F7F7F7F7F30
:103E98007F7F7F7F7F7F7F807F8080808080808022
:103EA800807F7F7F7F807F7F807F7F80807F7F7F15
:103EB8007F7F7F7F7F807F807F80808080807F8002
:103EC800807F7F7F807F80808080808080807F80EF
:103ED800808080808080807F7F7F7F7F7F7F7F7FE3
:103EE8007F7F7F7F7F807F808080808080808080D0
:103EF8008080808080807F7F7F7F7F7F7F7F7F7FC4
:103F08007F80808080808080807F7F7F7F7F7F7FB1
:103F18007F7F7F7F808080808080808080807F809E
:103F2800808080807F7F7F7F7F7F7F7F7F7F7F7F95
:103F38007F7F7F7F7F7F808080808080808080807F
:103F4800808080808080807F7F7F7F7F80807F806F
:103F58007F7F7F7F7F7F7F7F7F7F7F7F7F80808066
:103F680080807F80808080808080808080807F7F4C
:103F78007F808080808080807F7F7F7F7F7F7F7F42
:103F88007F7F7F7F807F808080808080808080802E
:103F98007F7F7F7F7F80808080808080808080801E
:103FA8007F7F7F7F7F7F7F7F8080807F7F7F7F7F16
:103FB8007F7F7F8080808080808080807F7F7F7F00
:103FC8007F7F8080808080808080807F807F7F7FEF
:103FD8007F7F7F7F7F7F807F7F7F7F7F7F7F7F7FE8
:103FE8007F7F7F808080808080808080807F7F7FCF
:103FF8007F80808080808080807F7F7F7F7F7F7FC1
:104008007F7F807F808080807F7F7F7F80807F80B0
:104018008080808080808080808080808080807F99
:104028007F7F7F7F7F7F7F7F80807F7F7F7F7F7F96
:104038007F7F7F808080808080808080808080807B
:10404800808080807F7F7F7F7F7F7F7F7F7F7F7F74
:104058007F7F7F7F7F7F7F7F7F7F80808080807F63
:104068007F80808080808080808080808080808049
:104078007F7F7F7F7F7F7F7F807F7F7F7F7F7F8046
:104088007F808080807F7F7F7F7F7F80808080802F
:104098007F7F7F7F7F7F7F7F7F807F7F7F7F808025
:1040A80080808080808080808080807F7F7F7F7F0D
:1040B8007F7F7F7F807F7F808080808080808080FE
:1040C800808080808080807F7F7F7F7F7F808080EE
:1040D8008080807F7F7F7F7F7F7F7F7F7F7F7F7FE5
:1040E8007F7F7F7F8080808080808080807F8080CD
:1040F80080808080808080807F7F7F7F7F7F7F7FC0
:104108007F7F7F7F7F7F7F7F7F7F7F7F7F808080B4
:10411800808080808080808080807F7F807F7F809B
:104128007F7F7F7F7F7F7F7F7F7F7F7F7F7F7F8096
:104138008080808080808080808080808080807F78
:104148007F7F7F7F807F7F807F7F7F7F7F7F807F74
:104158007F7F7F808080808080807F80808080805B
:104168008080807F7F7F7F7F7F7F7F7F7F7F7F8053
:1041780080808080807F7F7F7F7F7F7F7F8080803F
:104188008080808080808080807F807F7F7F7F7F2D
:104198007F7F7F80808080808080807F7F7F7F7F1F
:1041A8007F7F7F7F7F7F7F8080808080808080800E
:1041B8008080807F7F7F7F7F7F7F7F7F7F7F7F8003
:1041C80080808080808080807F7F7F7F7F7F7F7FEF
:1041D8007F7F80808080807F7F80808080808080DB
:1041E800808080807F7F7F7F7F7F7F7F7F7F8080D1
:1041F8007F8080808080807F7F80808080807F7FBC
:104208008080808080807F807F7F7F7F7F7F7F7FAF
:104218007F7F80808080808080807F7F7F7F7F809D
:104228007F7F807F7F807F7F7F807F808080807F8F
:104238008080808080807F7F807F807F7F7F7F7F7E
:104248007F80807F80807F807F7F7F808080807F6D
:104258007F808080807F7F7F7F7F7F7F7F7F808060
:1042680080807F7F7F7F7F807F7F80808080807F4E
:104278008080807F7F7F7F7F7F7F8080808080803D
:104288007F808080807F7F7F7F7F7F7F808080802E
:104298007F8080807F7F7F7F7F7F8080808080801D
:1042A8007F8080807F7F7F7F7F7F7F808080807F0F
:1042B8007F7F7F7F807F808080807F807F807F7FFF
:1042C8007F7F80807F7F7F8080807F7F7F7F807FF0
:1042D8007F7F7F80808080808080807F7F7F7F7FDE
:1042E8007F807F808080808080807F7F7F7F7F7FCE
:1042F8007F7F80807F807F7F7F807F7F807F8080BF
:1043080080807F80807F7F7F7F7F80807F7F8080AD
:1043180080808080807F7F7F7F8080808080808099
:1043280080807F7F7F7F7F7F808181808180818087
:1043380081818081818080807F7F7E7F7E7D7E7F7E
:104348007D7C7D7C7B7A7B7B7A7A79797A7B7D7BB5
:1043580080807F8285878586888683838485858714
:104368008383878889858886858884847F80827E00
:104378007D7C7B7B7475757272706F6C6C6C6B7006
:10438800717175777A7D8487868A8F9295949694D1
:10439800949796979494918D8B8C8C8682807C7A56
:1043A8007675746E6D6A6868676664646665656666
:1043B800656B6D75787B818C97989A9CA1A5A3A352
:1043C800A39E9C95969892908A85827B7C77727042
:1043D800686D67666560605D5D5F5E5E60606567AD
:1043E800707A80888691999EA6A6ABA8A1A5A8A751
:1043F8009F9A99938F8B8C847D7675756D6A6463AB
:104408005D5C5B5D58585C606766696F757479813F
:104418008B908C909BA2A8AAADAAA3A0A5A39B96BB
:104428008D8784827F77716A64665C5E6064625E91
:1044380064676D6C707374777675807F85909495DA
:10444800949A9FA6AAA6A096969A958B847F757033
:10445800717B786A686F6F707570736F666D797E3F
:104468007E767A7D7D83807D797B7C778586838067
:1044780080889196948E858C999C9793898982815E
:104488008E8E837571737A77716B6864605A575B27
:104498005D65727A7F7D798D9FA49C979492989C94
:1044A800A39D8D86878A948C8071696D78817F85BC
:1044B800776D6C7A8F89786C66687179715A6270D9
:1044C8007C777784817F8696929CA7A4968D9DB0F1
:1044D800A5928B817D757E7C736C707C7172706A1D
:1044E8005F62676C756E6A69738892858181808A5C
:1044F80094998E848D9E998C8A837F7B838E8F82FC
:10450800757C91988F88736D7676715B525567705C
:104518006D6A606967749A998D8C98AEAFAFA693EF
:104528008C909F8A706E77847A7B7867666C7880C7
:10453800796E6C718A8A766D6A7A7B757776757B07
:10454800A3AE867A898F8791AE8D6E889E99838671
:104558007E677A8972575F6E787E6E626064677E66
:104568009E7D547DB2AE96929C858EAF8B77708778
:10457800A585756268767B998059648B988B7A6A71
:104588007277897D5B556E9985716D67858EA4A25A
:1045980088878BAFAB92927B7E898A7B666E727CB2
:1045A80079645F5D7387857061768A98886E768690
:1045B80095887A7B88A0988783747899A78E6D747C
:1045C80092A4987D7379828B765C5C728B765A5252
:1045D800607B848372678CA8A4928D9998A5957541
:1045E800748DA28A6B666C80918B6B597B9A9479D7
:1045F8006672828376535D697F8463696586A3A04A
:104608008E7598B5A796819397948D69737D8F7AE7
:1046180062625F6E83836A5C7691837B667B848942
:1046280086697B8CA1937A7F7D8CA7947D759BA9E5
:104638009183798D87836F5F6A79775F5355577256
:104648008B6D5D719CA18D8D96A6A79A8D858F9D8A
:104658008974696B7E8D88696A8894887877818582
:104668007B685C6779755D5B60708793877C9BADC1
:10467800AC9D949CA29D8D767688877663616176E1
:1046880084715C6A8885786E7481837F736E7F8D90
:10469800897A787D86A1957E8398A693898E919450
:1046A8008B7770788073645D585F716D5961788914
:1046B8008380878D9D9E93898D9E91838073798851
:1046C8008D776E8697908380878B8679696E716DFA
:1046D800595D5A57727B7165879F9C9B9A9EA6A4C9
:1046E8009C898C92877F7472697A817063728283E5
:1046F80079777C808271726F7C7773736B727F912C
:10470800847989999C9B94989CA19085898D8471C2
:1047180070676165756758647874737B77868A8A71
:10472800808898918D87837D7E9086757B8A918914
:10473800898890968B7E7D8683746D665F5E6468DB
:104748005B5D717C83838992A0A694959C9C8E89DD
:10475800857D757984746E798180807E7E878C7A78
:1047680075798072666C6563627A7A69758B949ADA
:1047780097999DA7A592939392848079786A6C7C87
:104788006B656B75787B77777F86766F78827872C2
:104798007A777A70879085848997979894919C976F
:1047A8008584898E777273746C5F74726A64717BA6
:1047B8007E7B717C8C847D7C898C7F8684938079D8
:1047C800918D827F878C8E897E8997877F78848474
:1047D8007972717B6560747A6E6A727A7B7D758393
:1047E800918A847C8E968D87898C87787E8E877651
:1047F8007680898D777A8C8A7D777C8B88777381B0
:10480800847268758578686575897B6B80938D80FF
:10481800808E9F91828594917D6F868F7968768945
:104828008B7B6C81908A737B868C7B727B877E6B9B
:1048380067788772626581837B6A829B8E788499A8
:104848009B8E7F8A989579777D8D7F6D6F80877E27
:1048580075768A907E6F818B8875748186796B7185
:10486800788176686F7F817C767D8B8F807F8C9155
:104878009185848F92837D81807F8079797C808304
:1048880084808089857F7E808180777A8081767731
:10489800797772757A7576788386837A868B867D42
:1048A8007F84887F79858888818482847B808380DF
:1048B8007B7D868B877E838A887B7C80857B7478EA
:1048C80081807778797A726F7B8076727B878A802D
:1048D8007C8B92867C7F86887C787E88817E8085AA
:1048E800857D767D8880797A888F8A7C85908F7F90
:1048F800787F86806F707C847771798480756D7815
:1049080085817374838C897D7F8B90817A7F88847D
:10491800777482887E777A87887D757D80817B79B8
:104928007F87868387868B8B87818786847F7C7F3A
:104938008380787B7D807B79787C7773797E7C77C0
:104948007A8089837D838D897F7C8187807978834C
:10495800847D798185837E7E838078757E817D776D
:104968007B848C867E838D8B827C828A83797B8410
:10497800857F79808381797B7F807B77747B807B5F
:10498800777A8184857E818789817C7E83837B7722
:104998007D857F797C8485827E8187857E7B7E7C10
:1049A8007B7B7B7C7E7D7F858381838785828083FB
:1049B80084807C7D81807D7C7E80807F7F808181FA
:1049C8007F7F807E7B7A7C7D7F7B7C8084838181F6
:1049D8008586817D7E82817C7A80827E7A7E8181D5
:1049E8007D7E8284807E8082807B7C7D7C7A7C7FD9
:1049F8007F7E7F858885828588847F7E82817C7999
:104A08007C807E7B7C81807E7E7F818282818281A8
:104A180081807E7C7E7E79757A82807B7C858B879F
:104A28007F818A897E7A808580787981837D797E85
:104A380082807C7C8183817F818584807E7F807F6A
:104A48007C7A797A7B7E7F7F80838686838386855E
:104A5800807C7F817E797A7F807D7C7F8381808066
:104A680082828180807F7F7E7D7D7F807E7D7F8149
:104A7800807E7D7E7E7F7F7E7D8083838180838430
:104A8800817E7F82817D7D81838180808181807E1E
:104A98007E7E7F7D7C7D7F7F7E7E8082828080811E
:104AA80081807F7F7F7F7D7C7C7D7F7F7E7E818311
:104AB8008281828382818181808080807F7F8081E2
:104AC800807F7F807F7E7E7F7F7F7F7F7F7F7F7FEE
:104AD8007F7F7F80807F8080818080808080807FD2
:104AE8007E7E7F7F7F7E7F808180808080808081C6
:104AF8008081808181808180807F7F7F7F7F7F7EB2
:104B08007F7E7F7F7F7F7F7F80807F7F7E7F7F7EAE
:104B18007D7D7F8080808082838282818281818086
:104B28007F7F80807F7F7F80807F7F7F7F7F7F7E8A
:104B38007E7E7F7F7F7F7F80807F80807F7F808079
:104B48007F7F7F7F7F7F7F807F7F80808081818064
:104B5800808080807F7F808080808080808080804F
:104B68007F7F7F7F7F7F7F7F7F7F7F7F7F7F7F7F4D
:104B78007F7F7F7F8080818180818181818080802B
:104B8800808080807F7F80807F7F7F7F7F7F7F7F27
:104B98007F7F7E7E7E7E7E7E7F7F7F80818181811A
:104BA800818181818080808080807F80807F7F7FFD
:104BB8007F7F7F7F7F7F7F7F7F7F7F7F7F7F7F80FC
:104BC8007F7F7F7F808080808081818180808080DE
:104BD800807F7F7F7F7F7F7F7F7F7F7F7F7F8080DA
:104BE8007F7F807F7F7F7F7F7F80807F7F808080C7
:104BF800808080808080808080807F7F7F7F7F7FB3
:104C08007F7F7F7F808080808080808080808080A0
:104C1800807F7F7F7F7F7F7F7F7F807F7F7F7F8099
:104C28007F7F7F7F7F7F7F7F7F7F80808080808086
:104C38008080808080807F7F7F7F7F7F7F7F807F75
:104C48007F7F7F7F7F7F7F7F7F7F7F7F7F80808069
:104C58008080808080807F7F80808080808080804E
:104C680080807F7F7F7F7F7F7F7F7F7F7F7F7F7F4A
:104C78007F7F7F7F7F7F8080808080808080808032
:104C88008080808080807F7F7F7F7F7F7F7F7F7F26
:104C98007F7F7F7F80807F7F7F7F808080807F8015
:104CA8008080808080808080808080807F7F7F7F00
:104CB8007F7F7F7F7F7F7F7F7F7F7F7F7F7F8080FA
:104CC80080808080808080808080808080808080DC
:104CD8007F7F7F7F7F7F7F7F7F8080807F7F7F7FD9
:104CE8007F7F7F7F7F7F80808080808080807F80C3
:104CF8007F7F8080807F8080807F7F7F7F7F7F7FB6
:104D08007F7F7F7F7F8080808080808080808080A0
:104D18008080808080808080807F807F807F7F7F90
:104D28007F7F7F7F7F7F7F7F7F7F7F807F807F8088
:104D38007F807F807F807F80807F807F807F807F73
:104D48008080808080807F7F7F7F7F7F7F7F7F8064
:104D58007F807F80807F807F80807F807F807F7F53
:104D6800807F807F807F80807F807F80807F807F42
:104D7800807F7F807F807F807F80807F807F807F33
:104D88007F807F807F80807F807F807F80807F8022
:104D98007F807F7F807F807F80807F807F807F7F14
:104DA800807F807F80807F807F807F7F807F807F03
:104DB80080807F807F807F7F807F807F80807F80F2
:104DC8007F807F7F807F807F80807F807F807F7FE4
:104DD800807F807F80807F807F807F80807F807FD2
:104DE800807F7F807F807F80807F807F807F7F80C3
:104DF8007F807F80807F807F807F7F807F807F80B3
:104E0800807F807F807F7F807F807F80807F807FA2
:104E1800807F7F807F807F80807F807F807F7F8092
:104E28007F807F7F807F807F80807F807F807F7F83
:104E3800807F807F80807F807F807F7F807F807F72
:104E480080807F807F807F7F807F807F80807F8061
:104E58007F807F7F807F807F7F807F807F80807F53
:104E6800807F807F7F807F807F7F807F807F808042
:104E78007F807F807F808080807F807F7F7F807F32
:104E8800807F807F80807F807F807F807F807F8021
:104E980080807F808080807F807F807F807F7F7F11
:104EA8007F807F7F7F8080807F807F808080807F01
:104EB800807F807F807F7F807F807F7F7F808080F2
:104EC8007F807F807F807F7F7F7F807F807F7F80E4
:104ED80080807F80808080807F807F807F807F7FD0
:104EE8007F7F807F807F808080807F808080807FC0
:104EF8007F7F7F807F807F807F80807F807F8080B2
:104F080080807F808080807F7F7F7F807F807F7FA1
:104F18007F7F7F7F807F808080808080808080808E
:104F2800808080807F807F807F807F7F807F80807F
:104F38007F7F807F80807F7F7F7F7F7F7F807F8074
:104F48008080808080808080807F807F7F807F7F5E
:104F5800807F7F7F7F7F7F7F7F8080808080808051
:104F6800807F80807F7F807F80807F80807F807F40
:104F78007F7F7F7F7F7F7F7F807F7F807F7F807F36
:104F88007F807F80807F80807F807F80808080801E
:104F98008080807F807F7F7F7F7F7F7F7F7F7F7F15
:104FA8007F7F7F7F7F7F807F808080808080808000
:104FB80080807F7F7F7F7F7F7F7F7F807F808080F3
:104FC8008080807F807F7F7F7F7F7F7F7F80807FE3
:104FD8008080808080808080808080807F7F807FCC
:104FE8007F7F7F7F7F7F7F7F7F7F7F80807F807FC6
:104FF800808080807F7F80808080808080808080AB
:105008008080807F80807F7F7F7F7F7F7F7F7F7FA3
:105018008080808080808080807F7F7F7F7F7F7F8F
:105028007F807F808080808080808080808080807A
:10503800807F7F7F7F7F7F7F7F7F7F7F7F80808074
:1050480080808080807F7F7F7F7F7F80808080805E
:105058008080808080808080808080807F7F7F804B
:105068007F7F7F7F807F7F7F7F7F7F7F7F7F807F46
:1050780080808080807F7F7F7F7F8080808080802D
:10508800808080807F807F807F7F807F7F7F7F7F21
:105098007F7F7F7F7F7F807F80808080808080800F
:1050A80080807F80807F7F7F7F7F7F807F807F8001
:1050B800807F807F7F7F7F808080807F807F807FF0
:1050C8007F7F7F7F80807F7F7F7F808080808080E0
:1050D800808080807F7F7F7F7F7F7F7F7F7F807FD3
:1050E8007F7F7F7F808080808080807F7F7F7F7FC1
:1050F8007F7F7F7F7F807F80807F7F7F7F808080B2
:10510800808080808080807F7F7F7F7F7F7F80809E
:105118007F7F80807F7F7F7F8080808080807F808E
:105128008080807F80808080807F7F7F7F7F807F7E
:105138007F7F7F7F7F7F7F7F7F7F7F808080808072
:105148008080808080808080807F7F807F80807F5B
:105158007F7F807F7F7F7F7F7F7F7F7F7F7F808054
:10516800808080808080808080807F7F8080807F3A
:105178007F7F80807F80807F808080807F807F7F2E
:105188007F80807F7F7F7F807F7F7F7F7F7F7F8023
:105198007F7F80808080807F7F7F7F7F7F7F7F7F12
:1051A8007F7F7F7F7F7F7F7F7F807F808080808001
:1051B80080808080807F807F8080808080808080E9
:1051C800808080807F807F7F7F7F7F7F7F7F7F80E1
:1051D80080808080808080808080808080808080C7
:1051E8007F7F7F7F7F7F7F7F7F7F7F7F7F7F7F7FC7
:1051F80080808080807F7F7F7F80808080808080AB
:10520800808080808080807F7F7F7F7F7F7F7F7F9F
:105218007F7F7F7F7F7F7F807F808080808080808E
:105228008080808080807F7F7F7F7F7F7F7F7F7F80
:105238007F7F7F7F7F7F7F7F7F7F7F7F7F80808073
:105248008080808080808080808080807F7F7F7F5A
:105258007F7F7F7F7F7F7F7F7F7F7F7F7F7F7F7F56
:1052680080808080808080808080808080807F7F38
:105278007F7F7F7F7F7F7F7F7F7F7F808080808031
:1052880080807F7F7F7F7F7F7F7F8080808080801E
:10529800808080807F7F7F7F7F7F7F7F807F80800F
:1052A8008080808080807F7F7F7F7F7F7F7F7F7F00
:1052B80080808080808080808080808080808080E6
:1052C8007F7F7F7F7F7F7F7F7F7F7F8080808080E1
:1052D80080807F7F7F7F7F7F7F807F8080808080CE
:1052E8008080807F808080808080808080808080B7
:1052F8007F7F7F7F807F7F7F7F7F7F7F7F7F7F80B4
:105308008080807F8080808080807F7F8080808098
:10531800808080807F7F7F7F7F7F7F7F7F8080808E
:10532800808080807F7F7F7F7F7F7F80808080807C
:10533800808080807F7F7F7F807F7F7F808080806C
:1053480080807F80807F807F7F7F7F7F7F7F7F7F60
:105358007F7F8080807F80808080807F7F807F7F4C
:105368007F7F807F808080807F8080807F7F7F7F3D
:105378007F7F7F807F7F7F8080807F7F7F7F807F30
:105388007F7F80807F808080808080807F807F801A
:1053980080807F7F807F7F7F807F807F7F807F800E
:1053A8007F7F7F7F7F7F7F7F808080807F808080FE
:1053B800807F7F7F7F7F80808080807F80808080EB
:1053C800808080807F7F7F807F7F7F7F7F7F8080DE
:1053D8007F7F7F8080807F7F7F8080807F7F7F80CE
:1053E8007F808080808080807F7F7F7F7F807F80BC
:1053F80080808080808080807F7F7F7F7F7F8080AB
:1054080080807F80807F7F7F7F7F7F7F808080809C
:10541800808080807F7F7F7F7F8080808080807F8A
:105428008080807F7F7F7F7F7F7F7F7F8080807F7E
:105438007F7F7F7F7F7F7F7F807F8080808080806D
:1054480080807F7F7F808080808080807F7F7F7F5B
:105458007F7F7F807F80808080808080807F7F7F4B
:105468007F7F80807F7F807F7F7F7F807F7F80803E
:10547800807F8080808080807F808080807F807F28
:105488007F7F7F7F7F7F7F7F807F7F80807F7F8020
:105498007F7F7F808080808080807F7F7F807F7F0C
:1054A8007F7F7F7F7F80808080807F7F7F80807FFD
:1054B8007F7F80808080807F7F807F7F7F7F8080EC
:1054C800807F7F7F7F807F7F7F7F7F7F7F7F7F80E1
:1054D8008080808080808080807F7F7F7F7F7F80CA
:1054E8008080807F7F7F808080807F7F80808080B9
:1054F800808080807F7F80808080807F7F807F80A9
:105508007F7F7F7F7F7F8080808080808080807F9A
:105518007F807F7F807F7F80808080807F7F7F7F8C
:105528007F7F80807F808080808080808080808076
:105538007F7F7F7F7F7F7F7F80807F7F7F7F7F7F71
:105548007F7F7F7F807F7F80808080808080807F5A
:105558007F7F7F7F7F7F808080808080807F7F7F4C
:105568007F80808080808080807F7F7F7F7F808039
:10557800807F80807F7F7F7F7F7F7F7F7F7F807F2F
:105588007F7F808080807F8080807F7F8080807F19
:10559800808080808080807F80807F7F7F7F808008
:1055A800808080807F7F807F7F807F7F807F7F7FFC
:1055B8007F7F7F7F7F807F7F8080808080808080EA
:1055C800808080808080807F7F7F7F7F7F7F7F7FDC
:1055D80080807F7F7F7F7F8080807F8080807F80CA
:1055E80080808080807F7F7F7F7F80807F7F7F7FBC
:1055F8007E7D7D7E7F7D7D7E7E7E7E7F80807F7FBF
:105608007F8080818282818181807F7F808180818B
:10561800818181808081807F7F7F7E7F7F7E808186
:105628007F80817F7E7F7F80818182827F7F817F73
:105638007E80807E7C7A7B7B79787B7A77787979B3
:105648007C7F82848384868685878A898886888AFF
:105658008887898A86818282807D7D7D7A77757543
:1056680073706F706F6F7273757A7D807F808485B9
:105678008788898B8B8B8B8E8D8D8E8C888A878083
:1056880082828180777275767270716D6E6F6F77B6
:105698007A787A808482848889898B8B8C8D8B8AAE
:1056A8008B8E8B89868286847F7E7C7974737473F3
:1056B800716A6B6D737A79797B7B7F85858689853D
:1056C800848A8D8B8B8E8E8D8C8989888785817E47
:1056D800797B766D6E6F6C6E787B726F757D82826A
:1056E8008687867F7E868D908E8F8E8C8A85828235
:1056F800817D7B736B6A6C7178818A8A837A787C06
:10570800808E9391827171737F8993948174747C74
:10571800838A8F856D5B5F758189928C82767986A5
:10572800909290846E69717F8C9084776E71859267
:1057380092847364688599998E7F7879808D938C2B
:10574800725E5E688697948A746B768891887660B4
:105758006A8A949790817A7B8894917968696B7D3D
:105768009292897669768687806E638097928D8516
:105778008184868B907E62636F7E928E847A6E7B44
:105788008B877D69607E98948D858085878A8F7CDC
:105798006164707F948D7F77707E8C837165789655
:1057A800998B8082828A938F8362576E7E93907FD3
:1057B80079717C8C877266788D92898287888A8FC6
:1057C8008A7A636377848C857F787984847F6B6E2B
:1057D8008B8F8A7E83908D918C7D635E75818D839E
:1057E8007F7B7285867E6B6F94918478818F8E988B
:1057F8008F7D625D788689807E767186877C66710A
:1058080097938374809192998D7D5E5D7A878B7C66
:105818007D7B767F80796E88988A7A73898F949950
:10582800876D5A6E828B847679727B877B70809DB8
:10583800937B73819395988F725B617B8E88797265
:105848007277827C70889D8F7A7284919896896F1E
:10585800586B838E84767871747E7C78929E877775
:105868007A8C95978F82665871838A7F787873755A
:105878007B78849D968077819097928B7859627C0B
:1058880088847876767779787C9498827B828A93F4
:10589800978F7E65607985817673797A78767D9140
:1058A800958579818B91948D816A667B877F7073EA
:1058B800797C79727C91978278828A92948D7F6CB8
:1058C800697C89817071787C77708298947E738006
:1058D8008E9892887A666E848B7E6B717C7E746CEF
:1058E800849B947B77848D98948A75637485867479
:1058F8006C777C7A6D76929A8876818C92958A827A
:105908006B6E80847967717D8376677E9999837AD7
:10591800888C91908D7C667482857267737E7E6BAD
:1059280070909B8E77828F92948B836B6C80887A31
:10593800666E7C8374677E9696827A8A8F95928A41
:1059480077677888866C6674807E687290988876A7
:105958008390969389806A75858874627080857053
:10596800678199957E7A8992999085736D81887EF1
:10597800676777817A667691988678869197918815
:105988007C6C7A868671617080846C67859A917B5D
:105998007E8D94988D83706E86887A60677C867811
:1059A80061769399867981909B9689766B7C8B83B7
:1059B8006C607084856E647F9B997D7785969F90D7
:1059C8007F6B70888C785D647B8F8062688DA19214
:1059D8007A7887999F8A74677C91876F5D6C858ECA
:1059E80079606A90A38F72758C9D9B82706B82958B
:1059F80084685D788D8B705B6F98A787687293A5B4
:105A080098796B728B957E655F7B918A6A57739DD7
:105A1800A682687498A895766B798F917760628072
:105A28009185695C739AA785646F9AAD9570657E58
:105A38009693725B65869581655E7699A384656E9B
:105A480096AC9873687E9492775E61819782636062
:105A5800748FA08E6E6C8AA5A07D6A7D93907966FE
:105A6800677A8D876C6379878B8F80727F93958730
:105A7800747B8F8B7972737C8782746E7A887D765B
:105A8800878A7A7E898A847F878A7E7C837D797BF0
:105A98007E7E77767A74778F8D72708A998C7C7E09
:105AA80088878785786D7A8A826E6D7A7C78818A14
:105AB8007D7385948D8181898A827E7C787D817AC7
:105AC8007379807A6D79908974798C8E88868780CD
