:020000040800F2
:100000000050002021020008270200082B020008EF
:100010009D020008A1020008E9020008000000009B
:100020000000000000000000000000003103000894
:10003000350300080000000039030008D50D000852
:100040004D0300084D0300084D0300084D03000850
:100050004D0300084D0300084D0300084D03000840
:100060004D0300084D0300084D0300084D03000830
:100070004D0300084D0300084D0300084D03000820
:100080004D0300084D0300084D0300084D03000810
:100090004D0300084D0300084D0300084D03000800
:1000A0004D0300084D0300084D0300084D030008F0
:1000B0004D0300084D0300084D0300084D030008E0
:1000C0004D0300084D0300084D0300084D030008D0
:1000D0004D0300084D0300084D0300084D030008C0
:1000E0004D0300084D0300084D0300080000000008
:1000F0000000000000000000000000000000000000
:1001000000000000000000005FF808F100B583B0B7
:1001100000F0AAF9304B314A1360314A1360314B79
:10012000314A32498B4204D21168196004330432D7
:10013000F7E72A4B1A682E4B9A4200D0FEE7284B6D
:100140001A682C4B9A42F9D1234B2B4A13602B4A45
:1001500013602B4B02E000221A600433294A9342B9
:10016000F9D3254B1B6813B9244B1B6803B1FEE779
:1001700000F086F9694601A800F022F9224C234BD1
:10018000E41AA4100025AC4214DC214C214BE41AE3
:10019000A4100025AC4213DC0099019800F022FE67
:1001A00005461D4C1D4BE41AA410002C0EDC2846FD
:1001B00000F0E2F8154B53F8253098470135E2E797
:1001C000144B53F8253098470135E3E7013C134BB6
:1001D00053F824309847E8E7BABADECA0000002096
:1001E0008400002000000020401800088800002043
:1001F000785634123254769888000020340100205A
:1002000088000020380100207803000878030008E7
:1002100078030008780300087803000878030008D2
:1002200008B5FFF773FF00BEFEE71EF0040F0CBF1A
:10023000EFF30880EFF309807146414A10472DE93A
:10024000F04182B004468846124B5E6B9F6B9D6AFC
:100250001B6B13F0020F03D00E4BDB6A002B0CDB81
:100260000D4800F0B5F8CDF800803B4632462946EF
:10027000204600F009F900BEFEE74BF6AB6100F046
:100280007DF90028ECD0034B4FF00042DA6202B057
:10029000BDE8F08100ED00E0E017000800BEFEE7D9
:1002A0001EF0040F0CBFEFF30880EFF309807146D6
:1002B000244A10472DE9F04182B004468846084B95
:1002C0005E6B9F6B9D6A074800F082F8CDF8008056
:1002D0003B4632462946204600F0D6F800BEFEE7EF
:1002E00000ED00E0F01700081EF0040F0CBFEFF364
:1002F0000880EFF309807146134A10472DE9F04159
:1003000082B004468846084B5E6B9F6B9D6A074827
:1003100000F05EF8CDF800803B4632462946204684
:1003200000F0B2F800BEFEE700ED00E0FC170008A8
:1003300000BEFEE700BEFEE700BEFEE7704700001D
:100340003F020008B5020008FD02000800BEFEE7FB
:100350004018000800000020880000204018000815
:10036000000000000000000088000020380100208C
:08037000000000000000000085
:10037800FEE7000008B503460C4A12685AB10B4A5A
:100388001068033323F003030344094A934206D851
:10039800064A136008BD054A06491160EFE700F0F8
:1003A8005DFD0C2303604FF0FF30F3E78C00002065
:1003B800004C00203801002001230360014B0B6032
:1003C800704700BF040000200FB400B583B004AB31
:1003D80053F8042B01938021064800F071FD002892
:1003E80003DD0146034800F037F803B05DF804EB7D
:1003F80004B07047940000202DE9F04385B004460E
:100408000F4643560BB10E461EE0042528462146EA
:10041800ABBE0446384605B0BDE8F08314F9011BAD
:1004280004AA1A4402F8101C0133AB42F6D304AAFA
:100438001344002203F8102C4FF00408E946404604
:100448004946ABBE8046761B002EE3D03546102EBB
:1004580028BF10250023E8E708B5FFF7CDFF08BD42
:1004680008B500F0FDF8024A024B9A6008BD00BFCB
:100478000000000800ED00E008B500F019F908BD1B
:10048800F8B504460D4617461E462748FFF79CFF59
:1004980021682648FFF798FF61682548FFF794FF11
:1004A800A1682448FFF790FFE1682348FFF78CFF15
:1004B80021692248FFF788FF61692148FFF784FF17
:1004C800A1692048FFF780FFE1691F48FFF77CFF1B
:1004D8001E48FFF779FF29461D48FFF775FF1D4C99
:1004E800E16A1D48FFF770FF216B1C48FFF76CFF9E
:1004F800E16B1B48FFF768FF15F0800F0AD115F470
:10050800004F0CD11748FFF75FFF06991648FFF711
:100518005BFFF8BD39461548FFF756FFEFE7314650
:100528001348FFF751FFEDE7C4160008D41600087A
:10053800E4160008F4160008041700081417000849
:100548002417000834170008441700085417000837
:100558006017000800ED00E0701700088017000819
:1005680090170008C0170008C8170008A01700084F
:10057800B017000883691A888A4201D000207047A2
:100588000268033A012A03D80233836101207047C5
:100598000020704782B00023019300932C4A13680F
:1005A80043F4803313602A4B1B6803F40033009331
:1005B800019B01330193009B1BB9019BB3F5A06F0D
:1005C800F1D1234B1B6813F4003F06D0012300939D
:1005D800009B012B04D002B0704700230093F7E77B
:1005E8001C4B1A6842F010021A601A6822F00302C3
:1005F8001A601A6842F002021A60A3F580535A681A
:100608005A605A685A605A6842F480625A605A6856
:1006180022F47C125A605A6842F4E8125A601A6846
:1006280042F080721A600A4B1B6813F0007FFAD000
:10063800074B5A6822F003025A605A6842F00202D5
:100648005A60034B5B6803F00C03082BF9D1C2E72F
:10065800001002400020024008B5FFF79BFF08BDCC
:1006680008B5104B1A6842F001021A6059680E4A20
:100678000A405A601A6822F0847222F480321A60A2
:100688001A6822F480221A605A6822F4FE025A601C
:100698004FF41F029A60FFF7DFFF044B4FF0006230
:1006A8009A6008BD001002400000FFF800ED00E06D
:1006B8001F4B5B6803F00C03042B15D0082B17D0D5
:1006C8001BB11C4B1C4A1A6002E01A4B1A4A1A60EA
:1006D800174B5B68C3F30313184AD35CDAB21549A6
:1006E8000B68D3400B607047124B134A1A60EFE750
:1006F8000F4A53685268C3F38343023312F4803FAE
:100708000AD00B4A526812F4003F0BD00C4A02FB85
:1007180003F3084A1360DBE7094A02FB03F3054ABF
:100728001360D5E7044A02FB03F3024A1360CFE7DC
:10073800001002401C00002000127A000C0000206B
:1007480000093D000F291FD810B407290FD908390F
:10075800C9B2436889000F248C4023EA040343602C
:10076800436802FA01F11943416010BC70470368FD
:1007780089000F248C4023EA04030360036802FA0B
:1007880001F119430160F0E7704708B50A79097863
:10079800FFF7D8FF08BD0F2900D9704700B585B00D
:1007A8000B46029204A921F80C3DFFF7EEFF05B0B5
:1007B8005DF804FB0F2905D8012A04D0012303FAA8
:1007C80001F141617047012303FA01F101617047AA
:1007D8000023024A1370024A137070472101002057
:1007E8001F0100200023034A1370034A1370034AB1
:1007F800137070471D010020200100201E010020F9
:1008080038B50546002401E00134E4B2072C06D8C7
:10081800AC42F9D00021204600F01CF9F4E7012190
:10082800284600F017F938BD08B5154B1878FFF7BA
:10083800E7FF144B1B78032B0DD8134A107880B9A7
:100848000F4A13780133DBB21370072B08D10E4B14
:1008580001221A7004E00A4B1878FFF7D1FF012033
:1008680008BD07490A78013AD2B20A7032B90020A5
:10087800054A10700133034A1370F1E70020EFE7CF
:100888001B0100201D0100201401002070B5054641
:100898000E46002405E00021204600F0DBF8013474
:1008A800E4B2072C04D8AC42F5D1B442F3D1F6E750
:1008B8000121284600F0CEF80121304600F0CAF8A0
:1008C80070BD000008B51A4B1978C1F10300043156
:1008D800C9B2C0B2FFF7DAFF164B1B78032B0DD84D
:1008E800154A1078A8B9124A13780133DBB213708D
:1008F800032B0DD1104B01221A7009E00C4B19780B
:10090800C1F103000431C9B2C0B2FFF7BFFF012033
:1009180008BD074A10780138C0B2107030B9064ACD
:10092800002111700133034A1370F1E70020EFE74B
:100938001A010020200100201501002008B5134AE3
:10094800138864339BB21380C82B00D008BD1346AC
:1009580000221A800E4B1B78012BF7D00D4B1B7809
:100968005BB10C4B1B78012BF0D1FFF7ABFF0128D3
:10097800ECD1074B01221A70E8E7FFF755FF012871
:10098800EFD1044B01221A70EBE700BF16010020DB
:100998001F0100202101002010B550B1002410E0F3
:1009A8000021204600F056F80134E4B2072CF7D9AC
:1009B80010BD0024FAE70121204600F04BF801346D
:1009C800E4B2072CF7D9F3E710B50E4B1B78032BCD
:1009D80014D80D4B1C7854B10020FFF7DDFF00241C
:1009E800094B1C70074A13780133137007E0012084
:1009F800FFF7D2FF044B01221A7000E001242046C1
:100A080010BD00BF1E0100201C01002008B50C4AC3
:100A1800138864339BB21380B3F5FA7F00D008BD06
:100A2800134600221A80074B1B78012BF7D1FFF7DA
:100A3800CBFF0128F3D1FFF7CBFEFFF7D3FEEEE79C
:100A4800180100201F01002008B5FFF777FFFFF706
:100A5800DDFF08BD08B507280AD8DFE800F0040A5A
:100A680010161C22282E0A4600211748FFF7A2FE5E
:100A780008BD0A4601211448FFF79CFEF8E70A461C
:100A880002211148FFF796FEF2E70A4603210E48B5
:100A9800FFF790FEECE70A4604210B48FFF78AFEB1
:100AA800E6E70A4605210848FFF784FEE0E70A461C
:100AB80006210548FFF77EFEDAE70A4607210248C5
:100AC800FFF778FED4E700BF0008014038B50446B8
:100AD8000D4607280AD8DFE800F0040E141A20266D
:100AE8002C32012200211948FFF755FE29462046DD
:100AF800FFF7B0FF38BD012211461448FFF74BFE3F
:100B0800F4E7012202211148FFF745FEEEE7012232
:100B180003210E48FFF73FFEE8E7012204210B48B6
:100B2800FFF739FEE2E7012205210848FFF733FE07
:100B3800DCE7012206210548FFF72DFED6E7012252
:100B480007210248FFF727FED0E700BF0008014051
:100B5800304B5A6822F001025A605A6822F00202A9
:100B68005A6001282AD0A8B102283FD0294A136820
:100B780043F001031360274B1B6813F0020FFAD0F0
:100B8800244B5A6822F001025A605A6822F0020285
:100B98005A6070471F4A136843F0010313601D4BE6
:100BA8001B6813F0020FFAD01A4B5A6822F00102A0
:100BB8005A605A6822F002025A607047154B1A6848
:100BC80042F480321A601A6822F480221A60114BAB
:100BD8001B6813F4003FFAD00E4B5A6842F001022A
:100BE8005A605A6822F002025A607047094A13682C
:100BF80043F080731360074B1B6813F0007FFAD033
:100C0800044B5A6822F001025A605A6842F0020204
:100C18005A607047001002401B4B5A6822F4003299
:100C28005A605A6822F480325A60012817D038B1C5
:100C3800022823D0144A536823F480335360704742
:100C4800114B5A6822F400325A605A6842F48032D2
:100C58005A600D4B1B6813F4003FFAD070470A4BDB
:100C68005A6842F400325A605A6842F480325A6034
:100C7800054B1B6813F4003FFAD07047024A5368CB
:100C880023F480335360704700100240024A5368CF
:100C980043EA80405060704700100240024678B135
:100CA800084B5968C07841EA0011596059681079B1
:100CB80041EA002159605968127941EAC2225A6012
:100CC800704700BF0010024090B110B5044600788C
:100CD800FFF73EFF2378022B03D02046FFF7DEFF05
:100CE80010BD6078FFF798FFA078FFF7CFFFF4E713
:100CF800704700001F2933D8012815D010B10228E9
:100D080024D07047012A08D019484369012202FA01
:100D180001F123EA0101416170471548436902FA6C
:100D280001F1194341617047012A08D01048C3698D
:100D3800012202FA01F123EA0101C16170470C485E
:100D4800C36902FA01F11943C1617047012A08D049
:100D580007488369012202FA01F123EA010181614E
:100D680070470348836902FA01F1194381617047AA
:100D78000010024038B101280BD0094A136823F04B
:100D8800020313607047064A136823F004031360D4
:100D9800F3E7034A136843F004031360EDE700BF69
:100DA80010E000E001FB00F1064B596006490A60BB
:100DB8001A6842F002021A601A6842F001021A60C8
:100DC800704700BF10E000E02401002008B5024B86
:100DD8001B68984708BD00BF2401002000B583B0F8
:100DE80001258DF8005000248DF804408DF8054049
:100DF8008DF803406846FFF767FF2A460221084638
:100E0800FFF778FF2046FFF7B5FF21462046FFF79A
:100E18005DFE21462846FFF759FE21460220FFF7CE
:100E280055FE21460320FFF751FE21460420FFF717
:100E38004DFE21460520FFF749FE21460620FFF713
:100E480045FE21460720FFF741FE034A4FF47A7119
:100E58006420FFF7A7FFFEE7510A0008014B186856
:100E6800704700BF2000002030B5141E05469BB017
:100E7800184605DA8B234FF0FF302B601BB030BDCE
:100E88004FF40273ADF80C300CBF234604F1FF3366
:100E9800029305934FF6FF7300910491ADF80E305D
:100EA80002461E9B6946284600F072F8431CBCBFE8
:100EB8008B232B60002CE1D00022009B1A70DDE709
:100EC80007B5009313460A46014603480068FFF732
:100ED800CBFF03B05DF804FB200000202DE9F047AC
:100EE8008E6882469E420C469046994637D88A8933
:100EF80012F4906F31D00223256809696F1A656969
:100F080005EB450595FBF3F509F101033B449D42CB
:100F180038BF1D46530530D5294600F035FB064637
:100F280050B90C234FF0FF30CAF80030A38943F0C2
:100F38004003A381BDE8F0873A46216900F0B4FA7E
:100F4800A38923F4906343F08003A38126613E4480
:100F580026604E466561ED1BA5604E4500D94E469C
:100F680032464146206800F0AAFAA36800209B1B7D
:100F7800A36023681E442660DCE72A4600F05EFB77
:100F880006460028E2D12169504600F0B1FAC8E7C8
:100F98002DE9F04F9DB003938B8980461D060C46C2
:100FA80016460FD50B696BB9402100F0EDFA2060A9
:100FB800206128B90C23C8F800304FF0FF30C7E093
:100FC800402363610023099320238DF829303023BF
:100FD8004FF0010B8DF82A3037463D4615F8013B96
:100FE8000BB1252B3ED1B7EB060A0BD05346324640
:100FF80021464046FFF772FF013000F0A480099BAC
:10100800534409933B78002B00F09D8000234FF058
:10101800FF32CDE90523049307938DF853301A93D3
:101028002F46052217F8011B4F4800F02FFA049BA2
:10103800D0B9D90644BF20228DF853201A0744BFDF
:101048002B228DF853202A782A2A15D02F460020E3
:101058000A25079A394611F8013B303B092B4DD92F
:10106800B8B10FE02F46B8E73F4A3D46801A0BFA61
:1010780000F018430490D3E7039A111D12680391F6
:10108800002A01DB079204E0524243F00203079270
:1010980004933B782E2B0CD17B782A2B33D1039BDE
:1010A80002371A1D1B680392002BB8BF4FF0FF339D
:1010B80005932E4D03223978284600F0E7F938B118
:1010C8004023401B03FA00F0049B013703430493B9
:1010D8003978062226487E1C8DF8281000F0D6F9AB
:1010E800002838D0234B13BB039B073323F0070397
:1010F80008330393099B4B4409936DE705FB0232C0
:1011080001200F46A6E700230A2519460137059353
:10111800384610F8012B303A092A03D9002BC8D0D9
:101128000591C6E705FB012101230746F0E703AB5C
:1011380000932246104B04A94046AFF30080B0F15B
:10114800FF3F8146D6D1A3895B063FF536AF0998A4
:101158001DB0BDE8F08F03AB00932246064B04A9EF
:10116800404600F081F8EAE70C1800081218000859
:101178001618000800000000E50E00082DE9F047E9
:1011880091461F468A680B6906469342B8BF1346C4
:10119800C9F8003091F843200C46DDF8208012B1E0
:1011A8000133C9F800302368990642BFD9F80030E6
:1011B8000233C9F80030256815F0060507D104F197
:1011C800190AE368D9F800209B1AAB4229DC94F885
:1011D80043302268003318BF012392062ED404F14D
:1011E800430239463046C047013021D02368E568BC
:1011F80003F00603042B18BF0025D9F800204FF090
:10120800000908BFAD1AA368226908BF25EAE57579
:101218009342C4BF9B1AED181A344D451AD10020C9
:1012280008E00123524639463046C047013003D111
:101238004FF0FF30BDE8F0870135C2E73020E118F4
:1012480081F843005A1C94F845102244023382F86E
:101258004310C4E70123224639463046C0470130CF
:10126800E6D009F10109D8E72DE9F04301F1430C73
:101278000C46097E85B06E291746064698460C9A94
:1012880000F0B38022D8632936D00AD8002900F0AC
:10129800B980582900F0838004F1420584F842108F
:1012A80032E0642901D06929F6D12068136805065F
:1012B80003F104012AD51B681160002B03DA2D22E3
:1012C8005B4284F843206F480A2239E0732900F012
:1012D8009D8008D86F2920D07029DDD1236843F07C
:1012E8002003236003E0752917D07829D4D1782307
:1012F800654884F8453055E0136804F14205191D26
:101308001B68116084F8423001238CE01B6810F0E0
:10131800400F116018BF1BB2CFE713682568181D6E
:101328001060280601D51B6802E06806FBD51B88FB
:101338006F2914BF0A2208225248002184F843105A
:101348006568002DA560C0F29580216821F0040130
:101358002160002B3DD1002D40F08E806546082A83
:101368000BD12368DB0708D5236962689A42DEBF80
:10137800302305F8013C05F1FF35ACEB050323618B
:10138800CDF800803B4603AA21463046FFF7F6FE1B
:1013980001304DD14FF0FF3005B0BDE8F08339483A
:1013A80084F84510136821681D1D1B6815600A061E
:1013B8000BD5CA0744BF41F0200121601BB9226840
:1013C80022F0200222601022B7E74D0648BF9BB2E8
:1013D800EFE76546B3FBF2F102FB1133C35C05F896
:1013E800013D0B460029F5D1B9E713682568181D9A
:1013F8006169106028061B6801D5196002E06A0659
:10140800FBD51980002365462361B9E71368191DC8
:1014180011601D6862680021284600F037F808B19D
:10142800401B606063682361002384F84330A7E7AA
:1014380023692A4639463046C0470130AAD0236876
:101448009B0713D4E068039B9842B8BF1846A3E7EC
:1014580001234A4639463046C04701309AD0013503
:10146800E368039A9B1AAB42F2DCEBE7002504F130
:101478001909F5E7002BACD1037804F1420584F88B
:1014880042306CE71D1800082E18000810B5C9B2C4
:1014980002449042034601D1002303E01C78013046
:1014A8008C42F6D1184610BD10B5431E0A4491422D
:1014B80000D110BD11F8014B03F8014FF7E788423E
:1014C80010B501EB020307D8421E99420AD011F861
:1014D800014B02F8014FF8E78342F5D98118D21A77
:1014E800D34200D110BD13F8014D01F8014DF7E7C3
:1014F80038B50546002943D051F8043C0C1F002B91
:10150800B8BFE41800F0D0F81E4A1368104633B983
:10151800636014602846BDE8384000F0C6B8A342AE
:101528000BD921686218934201BF1A685B68521888
:10153800226063600460EDE713465A680AB1A2426C
:10154800FAD919685818A0420BD1206801445818D4
:1015580082421960DED110685268014419605A60ED
:10156800D8E702D90C232B60D4E7206821188A42D7
:1015780001BF116852680918216062605C60C9E7A0
:1015880038BD00BF2801002070B5CD1C25F003052B
:1015980008350C2D38BF0C25002D064601DBA94265
:1015A80003D90C233360002070BD00F07DF8214A78
:1015B8001468214691B9204C23681BB9304600F0C5
:1015C80063F820602946304600F05EF8431C24D1B9
:1015D8000C233046336000F068F8E4E70B685B1BC7
:1015E80018D40B2B0FD90B60CC18CD50304600F017
:1015F8005CF804F10B00231D20F00700C31AD3D0B8
:101608005A42E250D0E74B688C4216BF63601360C1
:101618000C46EBE70C464968CCE7C41C24F00304ED
:10162800A04205D0211A304600F02EF80130CFD064
:101638002560DBE7280100202C010020F8B50746CB
:1016480014460E4621B9BDE8F8401146FFF79CBF85
:1016580022B9FFF74DFF25462846F8BD00F026F8C9
:10166800A0420FD221463846FFF78EFF05460028D4
:10167800F2D031462246FFF717FF31463846FFF7CA
:1016880037FFE9E73546E7E738B50023054C054657
:1016980008462360FEF76EFE431C02D1236803B19F
:1016A8002B6038BD300100207047704751F8043C6A
:1016B800181F002BBCBF0B58C018704753746163C8
:1016C8006B206672616D653A0A0000002052302076
:1016D8003D2020253038580A0000000020523120D3
:1016E8003D2020253038580A0000000020523220C2
:1016F8003D2020253038580A0000000020523320B1
:101708003D2020253038580A000000002052313290
:10171800203D20253038580A00000000204C522077
:101728003D2020253038580A000000002050432072
:101738003D2020253038580A000000002050535220
:10174800203D20253038580A000000004653522F0B
:101758004641523A0A0000002043465352203D2099
:1017680020253038580A00002048465352203D2092
:1017780020253038580A00002044465352203D2086
:1017880020253038580A00002041465352203D2079
:1017980020253038580A0000204D4D464152203D42
:1017A80020253038580A00002042464152203D206A
:1017B80020253038580A00004D6973630A0000007C
:1017C800204C522F4558435F52455455524E3D20A8
:1017D800253038580A0000005B486172644661751C
:1017E8006C745D0A000000005B4275734661756C9D
:1017F800745D0A005B55736167654661756C745D5D
:101808000A000000232D302B2000686C4C00656610
:101818006745464700303132333435363738394139
:10182800424344454600303132333435363738394F
:071838006162636465660054
:1018400078563412900000200000000000000000D4
:1018500000000000010203040607080900A24A0470
:101860002400002000000000000000000000000034
:101870000000000000000000000000000000000068
:101880000000000000000000000000000000000058
:101890000000000000000000000000000000000048
:1018A0000000000000000000000000000000000038
:1018B0000000000000000000000000000000000028
:0818C00000000000325476988C
:040000050800010DE1
:00000001FF
